{
  "_format": "hh-sol-artifact-1",
  "contractName": "BondingCurve",
  "sourceName": "contracts/bondingcurve/BondingCurve.sol",
  "abi": [
    {
      "inputs": [
        {
          "internalType": "contract IERC20",
          "name": "tokenA_",
          "type": "address"
        },
        {
          "internalType": "contract IERC20",
          "name": "tokenB_",
          "type": "address"
        },
        {
          "internalType": "address",
          "name": "owner_",
          "type": "address"
        },
        {
          "internalType": "uint256",
          "name": "totalBalanceA_",
          "type": "uint256"
        },
        {
          "internalType": "uint256",
          "name": "initialPrice_",
          "type": "uint256"
        },
        {
          "internalType": "uint256",
          "name": "finalPrice_",
          "type": "uint256"
        },
        {
          "internalType": "uint256",
          "name": "priceDivisor_",
          "type": "uint256"
        },
        {
          "internalType": "uint256",
          "name": "tax_",
          "type": "uint256"
        },
        {
          "internalType": "uint256",
          "name": "taxDivisor_",
          "type": "uint256"
        },
        {
          "internalType": "uint256",
          "name": "transitionBalanceA_",
          "type": "uint256"
        },
        {
          "internalType": "uint256",
          "name": "transitionDurationBlocks_",
          "type": "uint256"
        }
      ],
      "stateMutability": "nonpayable",
      "type": "constructor"
    },
    {
      "anonymous": false,
      "inputs": [
        {
          "indexed": true,
          "internalType": "address",
          "name": "recepient",
          "type": "address"
        },
        {
          "indexed": false,
          "internalType": "uint256",
          "name": "amountA",
          "type": "uint256"
        },
        {
          "indexed": false,
          "internalType": "uint256",
          "name": "amountB",
          "type": "uint256"
        }
      ],
      "name": "Buy",
      "type": "event"
    },
    {
      "anonymous": false,
      "inputs": [
        {
          "indexed": true,
          "internalType": "address",
          "name": "recepient",
          "type": "address"
        },
        {
          "indexed": false,
          "internalType": "uint256",
          "name": "amountA",
          "type": "uint256"
        },
        {
          "indexed": false,
          "internalType": "uint256",
          "name": "amountB",
          "type": "uint256"
        }
      ],
      "name": "Sell",
      "type": "event"
    },
    {
      "anonymous": false,
      "inputs": [],
      "name": "TransitionCancel",
      "type": "event"
    },
    {
      "anonymous": false,
      "inputs": [],
      "name": "TransitionEnd",
      "type": "event"
    },
    {
      "anonymous": false,
      "inputs": [],
      "name": "TransitionStart",
      "type": "event"
    },
    {
      "inputs": [],
      "name": "balanceA",
      "outputs": [
        {
          "internalType": "uint128",
          "name": "",
          "type": "uint128"
        }
      ],
      "stateMutability": "view",
      "type": "function"
    },
    {
      "inputs": [
        {
          "internalType": "uint256",
          "name": "amountA",
          "type": "uint256"
        },
        {
          "internalType": "uint256",
          "name": "maxAmountB",
          "type": "uint256"
        },
        {
          "internalType": "address",
          "name": "recepient",
          "type": "address"
        }
      ],
      "name": "buy",
      "outputs": [],
      "stateMutability": "nonpayable",
      "type": "function"
    },
    {
      "inputs": [
        {
          "internalType": "uint256",
          "name": "atBalanceA",
          "type": "uint256"
        }
      ],
      "name": "calculateDueBalanceB",
      "outputs": [
        {
          "internalType": "uint256",
          "name": "dueBalanceB",
          "type": "uint256"
        }
      ],
      "stateMutability": "view",
      "type": "function"
    },
    {
      "inputs": [],
      "name": "enactTransition",
      "outputs": [],
      "stateMutability": "nonpayable",
      "type": "function"
    },
    {
      "inputs": [],
      "name": "finalPrice",
      "outputs": [
        {
          "internalType": "uint256",
          "name": "",
          "type": "uint256"
        }
      ],
      "stateMutability": "view",
      "type": "function"
    },
    {
      "inputs": [
        {
          "internalType": "uint128",
          "name": "amountA",
          "type": "uint128"
        }
      ],
      "name": "getBuyPrice",
      "outputs": [
        {
          "internalType": "uint256",
          "name": "price",
          "type": "uint256"
        }
      ],
      "stateMutability": "view",
      "type": "function"
    },
    {
      "inputs": [
        {
          "internalType": "uint128",
          "name": "amountA",
          "type": "uint128"
        }
      ],
      "name": "getSellPrice",
      "outputs": [
        {
          "internalType": "uint256",
          "name": "price",
          "type": "uint256"
        }
      ],
      "stateMutability": "view",
      "type": "function"
    },
    {
      "inputs": [],
      "name": "initialPrice",
      "outputs": [
        {
          "internalType": "uint256",
          "name": "",
          "type": "uint256"
        }
      ],
      "stateMutability": "view",
      "type": "function"
    },
    {
      "inputs": [
        {
          "internalType": "address",
          "name": "owner",
          "type": "address"
        },
        {
          "internalType": "uint256",
          "name": "value",
          "type": "uint256"
        },
        {
          "internalType": "bytes",
          "name": "data",
          "type": "bytes"
        }
      ],
      "name": "onApprovalReceived",
      "outputs": [
        {
          "internalType": "bytes4",
          "name": "",
          "type": "bytes4"
        }
      ],
      "stateMutability": "nonpayable",
      "type": "function"
    },
    {
      "inputs": [],
      "name": "owner",
      "outputs": [
        {
          "internalType": "address",
          "name": "",
          "type": "address"
        }
      ],
      "stateMutability": "view",
      "type": "function"
    },
    {
      "inputs": [],
      "name": "priceDivisor",
      "outputs": [
        {
          "internalType": "uint256",
          "name": "",
          "type": "uint256"
        }
      ],
      "stateMutability": "view",
      "type": "function"
    },
    {
      "inputs": [
        {
          "internalType": "uint256",
          "name": "amountA",
          "type": "uint256"
        },
        {
          "internalType": "uint256",
          "name": "minAmountB",
          "type": "uint256"
        },
        {
          "internalType": "address",
          "name": "recepient",
          "type": "address"
        }
      ],
      "name": "sell",
      "outputs": [],
      "stateMutability": "nonpayable",
      "type": "function"
    },
    {
      "inputs": [
        {
          "internalType": "address",
          "name": "newOwner",
          "type": "address"
        }
      ],
      "name": "setOwner",
      "outputs": [],
      "stateMutability": "nonpayable",
      "type": "function"
    },
    {
      "inputs": [],
      "name": "tax",
      "outputs": [
        {
          "internalType": "uint256",
          "name": "",
          "type": "uint256"
        }
      ],
      "stateMutability": "view",
      "type": "function"
    },
    {
      "inputs": [],
      "name": "taxDivisor",
      "outputs": [
        {
          "internalType": "uint256",
          "name": "",
          "type": "uint256"
        }
      ],
      "stateMutability": "view",
      "type": "function"
    },
    {
      "inputs": [],
      "name": "tokenA",
      "outputs": [
        {
          "internalType": "contract IERC20",
          "name": "",
          "type": "address"
        }
      ],
      "stateMutability": "view",
      "type": "function"
    },
    {
      "inputs": [],
      "name": "tokenB",
      "outputs": [
        {
          "internalType": "contract IERC20",
          "name": "",
          "type": "address"
        }
      ],
      "stateMutability": "view",
      "type": "function"
    },
    {
      "inputs": [],
      "name": "totalBalanceA",
      "outputs": [
        {
          "internalType": "uint256",
          "name": "",
          "type": "uint256"
        }
      ],
      "stateMutability": "view",
      "type": "function"
    },
    {
      "inputs": [],
      "name": "transitionBalanceA",
      "outputs": [
        {
          "internalType": "uint256",
          "name": "",
          "type": "uint256"
        }
      ],
      "stateMutability": "view",
      "type": "function"
    },
    {
      "inputs": [],
      "name": "transitionDurationBlocks",
      "outputs": [
        {
          "internalType": "uint256",
          "name": "",
          "type": "uint256"
        }
      ],
      "stateMutability": "view",
      "type": "function"
    },
    {
      "inputs": [],
      "name": "transitionEndBlock",
      "outputs": [
        {
          "internalType": "uint96",
          "name": "",
          "type": "uint96"
        }
      ],
      "stateMutability": "view",
      "type": "function"
    },
    {
      "inputs": [
        {
          "internalType": "address",
          "name": "recepient",
          "type": "address"
        },
        {
          "internalType": "uint256",
          "name": "amount",
          "type": "uint256"
        }
      ],
      "name": "withdraw",
      "outputs": [],
      "stateMutability": "nonpayable",
      "type": "function"
    },
    {
      "inputs": [],
      "name": "withdrawableAmount",
      "outputs": [
        {
          "internalType": "uint128",
          "name": "",
          "type": "uint128"
        }
      ],
      "stateMutability": "view",
      "type": "function"
    }
  ],
  "bytecode": "0x6101c06040523480156200001257600080fd5b5060405162001ad638038062001ad68339810160408190526200003591620000c3565b600080546001600160a01b0319166001600160a01b039a909a16999099179098556060998a1b6001600160601b03199081166080529890991b90971660a05260c0859052600180546001600160801b0319166001600160801b039096169590951790945560e09290925261010052610120526101405261016091909152610180919091526101a05262000180565b60008060008060008060008060008060006101608c8e031215620000e5578687fd5b8b51620000f28162000167565b60208d0151909b50620001058162000167565b60408d0151909a50620001188162000167565b8099505060608c0151975060808c0151965060a08c0151955060c08c0151945060e08c015193506101008c015192506101208c015191506101408c015190509295989b509295989b9093969950565b6001600160a01b03811681146200017d57600080fd5b50565b60805160601c60a05160601c60c05160e05161010051610120516101405161016051610180516101a051611833620002a36000396000818161026901526110dd015260008181610462015261103f0152600081816102a301528181610b8e0152610df10152600081816103c70152818161078001528181610bb20152610e1501526000818161043b01528181610693015261098f015260008181610401015281816109f70152610a530152600081816101f001526109d6015260008181610317015281816109b201528181610d270152610d730152600081816102f0015281816105a5015281816107d20152818161095301528181610c430152610f1f0152600081816101970152818161083101528181610c780152610eea01526118336000f3fe608060405234801561001057600080fd5b506004361061018d5760003560e01c806363b665a4116100e3578063a6b513ee1161008c578063e0bf716e11610066578063e0bf716e1461045d578063f3fef3a314610484578063f4eca7e31461049757600080fd5b8063a6b513ee146103fc578063d04c698314610423578063d690a8c31461043657600080fd5b8063951303f5116100bd578063951303f51461039057806399c8d556146103c25780639c4eda5c146103e957600080fd5b806363b665a4146103125780637b04a2d0146103395780638da5cb5b1461037d57600080fd5b80634fd843c51161014557806359a87bc11161011f57806359a87bc1146102c55780635bf091ae146102d85780635f64b55b146102eb57600080fd5b80634fd843c51461026457806354d8634a1461028b57806357880e3c1461029e57600080fd5b80631d0806ae116101765780631d0806ae146101eb57806321d470da14610220578063488f1b2e1461022857600080fd5b80630fc63d101461019257806313af4035146101d6575b600080fd5b6101b97f000000000000000000000000000000000000000000000000000000000000000081565b6040516001600160a01b0390911681526020015b60405180910390f35b6101e96101e4366004611423565b6104aa565b005b6102127f000000000000000000000000000000000000000000000000000000000000000081565b6040519081526020016101cd565b6101e96104f0565b60005461024790600160a01b90046bffffffffffffffffffffffff1681565b6040516bffffffffffffffffffffffff90911681526020016101cd565b6102127f000000000000000000000000000000000000000000000000000000000000000081565b610212610299366004611552565b610669565b6102127f000000000000000000000000000000000000000000000000000000000000000081565b6101e96102d33660046115d8565b610727565b6102126102e6366004611552565b610738565b6101b97f000000000000000000000000000000000000000000000000000000000000000081565b6102127f000000000000000000000000000000000000000000000000000000000000000081565b61034c61034736600461146a565b6107c5565b6040517fffffffff0000000000000000000000000000000000000000000000000000000090911681526020016101cd565b6000546101b9906001600160a01b031681565b6001546103aa90600160801b90046001600160801b031681565b6040516001600160801b0390911681526020016101cd565b6102127f000000000000000000000000000000000000000000000000000000000000000081565b6001546103aa906001600160801b031681565b6102127f000000000000000000000000000000000000000000000000000000000000000081565b6101e96104313660046115d8565b6108a7565b6102127f000000000000000000000000000000000000000000000000000000000000000081565b6102127f000000000000000000000000000000000000000000000000000000000000000081565b6101e961049236600461143f565b6108b3565b6102126104a5366004611579565b61097e565b6000546001600160a01b031633146104c157600080fd5b6000805473ffffffffffffffffffffffffffffffffffffffff19166001600160a01b0392909216919091179055565b600054600160a01b90046bffffffffffffffffffffffff908116141561051557600080fd5b6001546001600160801b03161580156105455750600054600160a01b90046bffffffffffffffffffffffff164310155b61054e57600080fd5b6000805473ffffffffffffffffffffffffffffffffffffffff196001600160a01b03918216179091556040517f70a082310000000000000000000000000000000000000000000000000000000081523060048201527f0000000000000000000000000000000000000000000000000000000000000000909116906370a082319060240160206040518083038186803b1580156105e957600080fd5b505afa1580156105fd573d6000803e3d6000fd5b505050506040513d601f19601f820116820180604052508101906106219190611591565b600180546001600160801b03928316600160801b0292169190911790556040517f2826e91efda47d53362e34505951b849e7001301e6f6364dc00f2a9bc238742990600090a1565b60015460009081906106859084906001600160801b03166116e1565b600f0b12156106d5576001547f0000000000000000000000000000000000000000000000000000000000000000906106c5906001600160801b031661097e565b6106cf91906116c2565b92915050565b600154600090610701906106f39085906001600160801b0316611751565b6001600160801b031661097e565b600154610716906001600160801b031661097e565b6107209190611779565b9392505050565b61073333848484610a8c565b505050565b6001546000908190610752906001600160801b031661097e565b60015461076d906106f39086906001600160801b031661165f565b6107779190611779565b905060006107a57f0000000000000000000000000000000000000000000000000000000000000000836116c2565b905060006107bc6001600160801b03831684611779565b95945050505050565b6000336001600160a01b037f0000000000000000000000000000000000000000000000000000000000000000161415610826576000808380602001905181019061080f91906115a9565b9150915061081f86838784610a8c565b505061087e565b336001600160a01b037f000000000000000000000000000000000000000000000000000000000000000016141561018d576000808380602001905181019061086e91906115a9565b9150915061081f86868484610cec565b507f7b04a2d0000000000000000000000000000000000000000000000000000000009392505050565b61073333848484610cec565b6000546001600160a01b031633146108ca57600080fd5b6001600160a01b0382166108dc573391505b600154600160801b90046001600160801b031681111561090b5750600154600160801b90046001600160801b03165b600154610929908290600160801b90046001600160801b0316611751565b600180546001600160801b03928316600160801b02921691909117905561097a6001600160a01b037f0000000000000000000000000000000000000000000000000000000000000000168383610f94565b5050565b60008161098d57506000919050565b7f000000000000000000000000000000000000000000000000000000000000000060027f0000000000000000000000000000000000000000000000000000000000000000610a1b7f00000000000000000000000000000000000000000000000000000000000000007f0000000000000000000000000000000000000000000000000000000000000000611779565b610a26600187611779565b610a3090876116c2565b610a3a91906116c2565b610a4491906116a2565b610a4e91906116a2565b610a787f0000000000000000000000000000000000000000000000000000000000000000856116c2565b610a829190611779565b6106cf91906116a2565b600054600160a01b90046bffffffffffffffffffffffff9081161415610ab157600080fd5b6001600160a01b038116610ac25750825b6001546001600160801b0316831115610ae4576001546001600160801b031692505b600154600090610afe9085906001600160801b0316611751565b90506000610b14826001600160801b031661097e565b600154610b29906001600160801b031661097e565b610b339190611779565b905083811115610b8a5760405162461bcd60e51b815260206004820152600e60248201527f507269636520736c69707061676500000000000000000000000000000000000060448201526064015b60405180910390fd5b60007f0000000000000000000000000000000000000000000000000000000000000000610bd77f0000000000000000000000000000000000000000000000000000000000000000846116c2565b610be191906116a2565b600154909150610c02908290600160801b90046001600160801b031661165f565b6001600160801b038481169116600160801b026fffffffffffffffffffffffffffffffff19168117600155610c369061103d565b610c6b6001600160a01b037f000000000000000000000000000000000000000000000000000000000000000016883085611158565b610c9f6001600160a01b037f0000000000000000000000000000000000000000000000000000000000000000168588610f94565b60408051878152602081018490526001600160a01b038616917f1cbc5ab135991bd2b6a4b034a04aa2aa086dac1371cb9b16b8b5e2ed6b036bed910160405180910390a250505050505050565b600054600160a01b90046bffffffffffffffffffffffff9081161415610d1157600080fd5b6001600160a01b038116610d225750335b6001547f000000000000000000000000000000000000000000000000000000000000000090610d5b9085906001600160801b031661168a565b1115610d9a57600154610d97906001600160801b03167f0000000000000000000000000000000000000000000000000000000000000000611779565b92505b600154600090610db49085906001600160801b031661165f565b600154909150600090610dcf906001600160801b031661097e565b610de1836001600160801b031661097e565b610deb9190611779565b905060007f0000000000000000000000000000000000000000000000000000000000000000610e3a7f0000000000000000000000000000000000000000000000000000000000000000846116c2565b610e4491906116a2565b90506000610e5b6001600160801b03831684611779565b905085811015610ead5760405162461bcd60e51b815260206004820152600e60248201527f507269636520736c6970706167650000000000000000000000000000000000006044820152606401610b81565b600180546fffffffffffffffffffffffffffffffff19166001600160801b038616908117909155610edd9061103d565b610f126001600160a01b037f00000000000000000000000000000000000000000000000000000000000000001689308a611158565b610f466001600160a01b037f0000000000000000000000000000000000000000000000000000000000000000168683610f94565b60408051888152602081018390526001600160a01b038716917fed7a144fad14804d5c249145e3e0e2b63a9eb455b76aee5bc92d711e9bba3e4a910160405180910390a25050505050505050565b6040516001600160a01b0383166024820152604481018290526107339084907fa9059cbb00000000000000000000000000000000000000000000000000000000906064015b60408051601f198184030181529190526020810180517bffffffffffffffffffffffffffffffffffffffffffffffffffffffff167fffffffff00000000000000000000000000000000000000000000000000000000909316929092179091526111af565b7f00000000000000000000000000000000000000000000000000000000000000008111156110bc57600054600160a01b90046bffffffffffffffffffffffff16156110b957600080546001600160a01b031681556040517f872773dc7322ea426b9da704907c7ec7ddec7be5113f704c9996ef5d42f7abb99190a15b50565b600054600160a01b90046bffffffffffffffffffffffff166110b9576111027f00000000000000000000000000000000000000000000000000000000000000004361168a565b600080546bffffffffffffffffffffffff92909216600160a01b026001600160a01b039092169190911781556040517f46efe1aa86f4d49f2cffbf6693db2723ce53019909ed0ea15c3d572bc7dff62f9190a150565b6040516001600160a01b03808516602483015283166044820152606481018290526111a99085907f23b872dd0000000000000000000000000000000000000000000000000000000090608401610fd9565b50505050565b6000611204826040518060400160405280602081526020017f5361666545524332303a206c6f772d6c6576656c2063616c6c206661696c6564815250856001600160a01b03166112949092919063ffffffff16565b80519091501561073357808060200190518101906112229190611532565b6107335760405162461bcd60e51b815260206004820152602a60248201527f5361666545524332303a204552433230206f7065726174696f6e20646964206e60448201527f6f742073756363656564000000000000000000000000000000000000000000006064820152608401610b81565b60606112a384846000856112ab565b949350505050565b6060824710156113235760405162461bcd60e51b815260206004820152602660248201527f416464726573733a20696e73756666696369656e742062616c616e636520666f60448201527f722063616c6c00000000000000000000000000000000000000000000000000006064820152608401610b81565b843b6113715760405162461bcd60e51b815260206004820152601d60248201527f416464726573733a2063616c6c20746f206e6f6e2d636f6e74726163740000006044820152606401610b81565b600080866001600160a01b0316858760405161138d9190611610565b60006040518083038185875af1925050503d80600081146113ca576040519150601f19603f3d011682016040523d82523d6000602084013e6113cf565b606091505b50915091506113df8282866113ea565b979650505050505050565b606083156113f9575081610720565b8251156114095782518084602001fd5b8160405162461bcd60e51b8152600401610b81919061162c565b600060208284031215611434578081fd5b8135610720816117e8565b60008060408385031215611451578081fd5b823561145c816117e8565b946020939093013593505050565b60008060006060848603121561147e578081fd5b8335611489816117e8565b925060208401359150604084013567ffffffffffffffff808211156114ac578283fd5b818601915086601f8301126114bf578283fd5b8135818111156114d1576114d16117d2565b604051601f8201601f19908116603f011681019083821181831017156114f9576114f96117d2565b81604052828152896020848701011115611511578586fd5b82602086016020830137856020848301015280955050505050509250925092565b600060208284031215611543578081fd5b81518015158114610720578182fd5b600060208284031215611563578081fd5b81356001600160801b0381168114610720578182fd5b60006020828403121561158a578081fd5b5035919050565b6000602082840312156115a2578081fd5b5051919050565b600080604083850312156115bb578182fd5b8251915060208301516115cd816117e8565b809150509250929050565b6000806000606084860312156115ec578283fd5b83359250602084013591506040840135611605816117e8565b809150509250925092565b60008251611622818460208701611790565b9190910192915050565b602081526000825180602084015261164b816040850160208701611790565b601f01601f19169190910160400192915050565b60006001600160801b03808316818516808303821115611681576116816117bc565b01949350505050565b6000821982111561169d5761169d6117bc565b500190565b6000826116bd57634e487b7160e01b81526012600452602481fd5b500490565b60008160001904831182151516156116dc576116dc6117bc565b500290565b600081600f0b83600f0b828112817fffffffffffffffffffffffffffffffff8000000000000000000000000000000001831281151615611723576117236117bc565b816f7fffffffffffffffffffffffffffffff018313811615611747576117476117bc565b5090039392505050565b60006001600160801b0383811690831681811015611771576117716117bc565b039392505050565b60008282101561178b5761178b6117bc565b500390565b60005b838110156117ab578181015183820152602001611793565b838111156111a95750506000910152565b634e487b7160e01b600052601160045260246000fd5b634e487b7160e01b600052604160045260246000fd5b6001600160a01b03811681146110b957600080fdfea26469706673582212206d332930b78a9272a2110faa72e2783946cafde2b4c5c18e31f56c9388ef7a6a64736f6c63430008040033",
  "linkReferences": {},
  "deployedLinkReferences": {}
}