{
  "_format": "hh-sol-artifact-1",
  "contractName": "BondingCurve",
  "sourceName": "contracts/bondingcurve/BondingCurve.sol",
  "abi": [
    {
      "inputs": [
        {
          "internalType": "contract IERC20",
          "name": "tokenA_",
          "type": "address"
        },
        {
          "internalType": "contract IERC20",
          "name": "tokenB_",
          "type": "address"
        },
        {
          "internalType": "address",
          "name": "owner_",
          "type": "address"
        },
        {
          "internalType": "uint256",
          "name": "totalBalanceA_",
          "type": "uint256"
        },
        {
          "internalType": "uint256",
          "name": "initialPrice_",
          "type": "uint256"
        },
        {
          "internalType": "uint256",
          "name": "finalPrice_",
          "type": "uint256"
        },
        {
          "internalType": "uint256",
          "name": "priceDivisor_",
          "type": "uint256"
        },
        {
          "internalType": "uint256",
          "name": "tax_",
          "type": "uint256"
        },
        {
          "internalType": "uint256",
          "name": "taxDivisor_",
          "type": "uint256"
        },
        {
          "internalType": "uint256",
          "name": "transitionBalanceA_",
          "type": "uint256"
        },
        {
          "internalType": "uint256",
          "name": "transitionDurationBlocks_",
          "type": "uint256"
        }
      ],
      "stateMutability": "nonpayable",
      "type": "constructor"
    },
    {
      "anonymous": false,
      "inputs": [
        {
          "indexed": true,
          "internalType": "address",
          "name": "recepient",
          "type": "address"
        },
        {
          "indexed": false,
          "internalType": "uint256",
          "name": "amountA",
          "type": "uint256"
        },
        {
          "indexed": false,
          "internalType": "uint256",
          "name": "amountB",
          "type": "uint256"
        }
      ],
      "name": "Buy",
      "type": "event"
    },
    {
      "anonymous": false,
      "inputs": [
        {
          "indexed": true,
          "internalType": "address",
          "name": "recepient",
          "type": "address"
        },
        {
          "indexed": false,
          "internalType": "uint256",
          "name": "amountA",
          "type": "uint256"
        },
        {
          "indexed": false,
          "internalType": "uint256",
          "name": "amountB",
          "type": "uint256"
        }
      ],
      "name": "Sell",
      "type": "event"
    },
    {
      "anonymous": false,
      "inputs": [],
      "name": "TransitionCancel",
      "type": "event"
    },
    {
      "anonymous": false,
      "inputs": [],
      "name": "TransitionEnd",
      "type": "event"
    },
    {
      "anonymous": false,
      "inputs": [],
      "name": "TransitionStart",
      "type": "event"
    },
    {
      "inputs": [],
      "name": "balanceA",
      "outputs": [
        {
          "internalType": "uint128",
          "name": "",
          "type": "uint128"
        }
      ],
      "stateMutability": "view",
      "type": "function"
    },
    {
      "inputs": [
        {
          "internalType": "uint256",
          "name": "amountA",
          "type": "uint256"
        },
        {
          "internalType": "uint256",
          "name": "maxAmountB",
          "type": "uint256"
        },
        {
          "internalType": "address",
          "name": "recepient",
          "type": "address"
        }
      ],
      "name": "buy",
      "outputs": [],
      "stateMutability": "nonpayable",
      "type": "function"
    },
    {
      "inputs": [
        {
          "internalType": "uint256",
          "name": "atBalanceA",
          "type": "uint256"
        }
      ],
      "name": "calculateDueBalanceB",
      "outputs": [
        {
          "internalType": "uint256",
          "name": "dueBalanceB",
          "type": "uint256"
        }
      ],
      "stateMutability": "view",
      "type": "function"
    },
    {
      "inputs": [],
      "name": "enactTransition",
      "outputs": [],
      "stateMutability": "nonpayable",
      "type": "function"
    },
    {
      "inputs": [],
      "name": "finalPrice",
      "outputs": [
        {
          "internalType": "uint256",
          "name": "",
          "type": "uint256"
        }
      ],
      "stateMutability": "view",
      "type": "function"
    },
    {
      "inputs": [],
      "name": "initialPrice",
      "outputs": [
        {
          "internalType": "uint256",
          "name": "",
          "type": "uint256"
        }
      ],
      "stateMutability": "view",
      "type": "function"
    },
    {
      "inputs": [
        {
          "internalType": "address",
          "name": "owner",
          "type": "address"
        },
        {
          "internalType": "uint256",
          "name": "value",
          "type": "uint256"
        },
        {
          "internalType": "bytes",
          "name": "data",
          "type": "bytes"
        }
      ],
      "name": "onApprovalReceived",
      "outputs": [
        {
          "internalType": "bytes4",
          "name": "",
          "type": "bytes4"
        }
      ],
      "stateMutability": "nonpayable",
      "type": "function"
    },
    {
      "inputs": [],
      "name": "owner",
      "outputs": [
        {
          "internalType": "address",
          "name": "",
          "type": "address"
        }
      ],
      "stateMutability": "view",
      "type": "function"
    },
    {
      "inputs": [],
      "name": "priceDivisor",
      "outputs": [
        {
          "internalType": "uint256",
          "name": "",
          "type": "uint256"
        }
      ],
      "stateMutability": "view",
      "type": "function"
    },
    {
      "inputs": [
        {
          "internalType": "uint256",
          "name": "amountA",
          "type": "uint256"
        },
        {
          "internalType": "uint256",
          "name": "minAmountB",
          "type": "uint256"
        },
        {
          "internalType": "address",
          "name": "recepient",
          "type": "address"
        }
      ],
      "name": "sell",
      "outputs": [],
      "stateMutability": "nonpayable",
      "type": "function"
    },
    {
      "inputs": [
        {
          "internalType": "address",
          "name": "newOwner",
          "type": "address"
        }
      ],
      "name": "setOwner",
      "outputs": [],
      "stateMutability": "nonpayable",
      "type": "function"
    },
    {
      "inputs": [],
      "name": "tax",
      "outputs": [
        {
          "internalType": "uint256",
          "name": "",
          "type": "uint256"
        }
      ],
      "stateMutability": "view",
      "type": "function"
    },
    {
      "inputs": [],
      "name": "taxDivisor",
      "outputs": [
        {
          "internalType": "uint256",
          "name": "",
          "type": "uint256"
        }
      ],
      "stateMutability": "view",
      "type": "function"
    },
    {
      "inputs": [],
      "name": "tokenA",
      "outputs": [
        {
          "internalType": "contract IERC20",
          "name": "",
          "type": "address"
        }
      ],
      "stateMutability": "view",
      "type": "function"
    },
    {
      "inputs": [],
      "name": "tokenB",
      "outputs": [
        {
          "internalType": "contract IERC20",
          "name": "",
          "type": "address"
        }
      ],
      "stateMutability": "view",
      "type": "function"
    },
    {
      "inputs": [],
      "name": "totalBalanceA",
      "outputs": [
        {
          "internalType": "uint256",
          "name": "",
          "type": "uint256"
        }
      ],
      "stateMutability": "view",
      "type": "function"
    },
    {
      "inputs": [],
      "name": "transitionBalanceA",
      "outputs": [
        {
          "internalType": "uint256",
          "name": "",
          "type": "uint256"
        }
      ],
      "stateMutability": "view",
      "type": "function"
    },
    {
      "inputs": [],
      "name": "transitionDurationBlocks",
      "outputs": [
        {
          "internalType": "uint256",
          "name": "",
          "type": "uint256"
        }
      ],
      "stateMutability": "view",
      "type": "function"
    },
    {
      "inputs": [],
      "name": "transitionEndBlock",
      "outputs": [
        {
          "internalType": "uint96",
          "name": "",
          "type": "uint96"
        }
      ],
      "stateMutability": "view",
      "type": "function"
    },
    {
      "inputs": [
        {
          "internalType": "address",
          "name": "recepient",
          "type": "address"
        },
        {
          "internalType": "uint256",
          "name": "amount",
          "type": "uint256"
        }
      ],
      "name": "withdraw",
      "outputs": [],
      "stateMutability": "nonpayable",
      "type": "function"
    },
    {
      "inputs": [],
      "name": "withdrawableAmount",
      "outputs": [
        {
          "internalType": "uint128",
          "name": "",
          "type": "uint128"
        }
      ],
      "stateMutability": "view",
      "type": "function"
    }
  ],
  "bytecode": "0x6101c06040523480156200001257600080fd5b50604051620018b1380380620018b18339810160408190526200003591620000c3565b600080546001600160a01b0319166001600160a01b039a909a16999099179098556060998a1b6001600160601b03199081166080529890991b90971660a05260c0859052600180546001600160801b0319166001600160801b039096169590951790945560e09290925261010052610120526101405261016091909152610180919091526101a05262000180565b60008060008060008060008060008060006101608c8e031215620000e5578687fd5b8b51620000f28162000167565b60208d0151909b50620001058162000167565b60408d0151909a50620001188162000167565b8099505060608c0151975060808c0151965060a08c0151955060c08c0151945060e08c015193506101008c015192506101208c015191506101408c015190509295989b509295989b9093969950565b6001600160a01b03811681146200017d57600080fd5b50565b60805160601c60a05160601c60c05160e05161010051610120516101405161016051610180516101a05161161c62000295600039600081816102530152610f5d0152600081816104260152610ebf01526000818161027a01528181610a0e0152610c7101526000818161038b01528181610a320152610c950152600081816103ff01526108090152600081816103c50152818161087101526108cd0152600081816101da01526108500152600081816102db0152818161082c01528181610ba70152610bf30152600081816102b4015281816105690152818161064b015281816107cd01528181610ac30152610d9f015260008181610181015281816106aa01528181610af80152610d6a015261161c6000f3fe608060405234801561001057600080fd5b50600436106101775760003560e01c80637b04a2d0116100d8578063a6b513ee1161008c578063e0bf716e11610066578063e0bf716e14610421578063f3fef3a314610448578063f4eca7e31461045b57600080fd5b8063a6b513ee146103c0578063d04c6983146103e7578063d690a8c3146103fa57600080fd5b8063951303f5116100bd578063951303f51461035457806399c8d556146103865780639c4eda5c146103ad57600080fd5b80637b04a2d0146102fd5780638da5cb5b1461034157600080fd5b80634fd843c51161012f57806359a87bc11161011457806359a87bc11461029c5780635f64b55b146102af57806363b665a4146102d657600080fd5b80634fd843c51461024e57806357880e3c1461027557600080fd5b80631d0806ae116101605780631d0806ae146101d557806321d470da1461020a578063488f1b2e1461021257600080fd5b80630fc63d101461017c57806313af4035146101c0575b600080fd5b6101a37f000000000000000000000000000000000000000000000000000000000000000081565b6040516001600160a01b0390911681526020015b60405180910390f35b6101d36101ce3660046112a3565b61046e565b005b6101fc7f000000000000000000000000000000000000000000000000000000000000000081565b6040519081526020016101b7565b6101d36104b4565b60005461023190600160a01b90046bffffffffffffffffffffffff1681565b6040516bffffffffffffffffffffffff90911681526020016101b7565b6101fc7f000000000000000000000000000000000000000000000000000000000000000081565b6101fc7f000000000000000000000000000000000000000000000000000000000000000081565b6101d36102aa366004611431565b61062d565b6101a37f000000000000000000000000000000000000000000000000000000000000000081565b6101fc7f000000000000000000000000000000000000000000000000000000000000000081565b61031061030b3660046112ea565b61063e565b6040517fffffffff0000000000000000000000000000000000000000000000000000000090911681526020016101b7565b6000546101a3906001600160a01b031681565b60015461036e90600160801b90046001600160801b031681565b6040516001600160801b0390911681526020016101b7565b6101fc7f000000000000000000000000000000000000000000000000000000000000000081565b60015461036e906001600160801b031681565b6101fc7f000000000000000000000000000000000000000000000000000000000000000081565b6101d36103f5366004611431565b610721565b6101fc7f000000000000000000000000000000000000000000000000000000000000000081565b6101fc7f000000000000000000000000000000000000000000000000000000000000000081565b6101d36104563660046112bf565b61072d565b6101fc6104693660046113d2565b6107f8565b6000546001600160a01b0316331461048557600080fd5b6000805473ffffffffffffffffffffffffffffffffffffffff19166001600160a01b0392909216919091179055565b600054600160a01b90046bffffffffffffffffffffffff90811614156104d957600080fd5b6001546001600160801b03161580156105095750600054600160a01b90046bffffffffffffffffffffffff164310155b61051257600080fd5b6000805473ffffffffffffffffffffffffffffffffffffffff196001600160a01b03918216179091556040517f70a082310000000000000000000000000000000000000000000000000000000081523060048201527f0000000000000000000000000000000000000000000000000000000000000000909116906370a082319060240160206040518083038186803b1580156105ad57600080fd5b505afa1580156105c1573d6000803e3d6000fd5b505050506040513d601f19601f820116820180604052508101906105e591906113ea565b600180546001600160801b03928316600160801b0292169190911790556040517f2826e91efda47d53362e34505951b849e7001301e6f6364dc00f2a9bc238742990600090a1565b6106393384848461090c565b505050565b6000336001600160a01b037f000000000000000000000000000000000000000000000000000000000000000016141561069f57600080838060200190518101906106889190611402565b915091506106988683878461090c565b50506106f7565b336001600160a01b037f000000000000000000000000000000000000000000000000000000000000000016141561017757600080838060200190518101906106e79190611402565b9150915061069886868484610b6c565b507f7b04a2d0000000000000000000000000000000000000000000000000000000005b9392505050565b61063933848484610b6c565b6000546001600160a01b0316331461074457600080fd5b6001600160a01b038216610756573391505b600154600160801b90046001600160801b03168111156107855750600154600160801b90046001600160801b03165b6001546107a3908290600160801b90046001600160801b031661153a565b600180546001600160801b03928316600160801b0292169190911790556107f46001600160a01b037f0000000000000000000000000000000000000000000000000000000000000000168383610e14565b5050565b60008161080757506000919050565b7f000000000000000000000000000000000000000000000000000000000000000060027f00000000000000000000000000000000000000000000000000000000000000006108957f00000000000000000000000000000000000000000000000000000000000000007f0000000000000000000000000000000000000000000000000000000000000000611562565b6108a0600187611562565b6108aa908761151b565b6108b4919061151b565b6108be91906114fb565b6108c891906114fb565b6108f27f00000000000000000000000000000000000000000000000000000000000000008561151b565b6108fc9190611562565b61090691906114fb565b92915050565b600054600160a01b90046bffffffffffffffffffffffff908116141561093157600080fd5b6001600160a01b0381166109425750825b6001546001600160801b0316831115610964576001546001600160801b031692505b60015460009061097e9085906001600160801b031661153a565b90506000610994826001600160801b03166107f8565b6001546109a9906001600160801b03166107f8565b6109b39190611562565b905083811115610a0a5760405162461bcd60e51b815260206004820152600e60248201527f507269636520736c69707061676500000000000000000000000000000000000060448201526064015b60405180910390fd5b60007f0000000000000000000000000000000000000000000000000000000000000000610a577f00000000000000000000000000000000000000000000000000000000000000008461151b565b610a6191906114fb565b600154909150610a82908290600160801b90046001600160801b03166114b8565b6001600160801b038481169116600160801b026fffffffffffffffffffffffffffffffff19168117600155610ab690610ebd565b610aeb6001600160a01b037f000000000000000000000000000000000000000000000000000000000000000016883085610fd8565b610b1f6001600160a01b037f0000000000000000000000000000000000000000000000000000000000000000168588610e14565b60408051878152602081018490526001600160a01b038616917f1cbc5ab135991bd2b6a4b034a04aa2aa086dac1371cb9b16b8b5e2ed6b036bed910160405180910390a250505050505050565b600054600160a01b90046bffffffffffffffffffffffff9081161415610b9157600080fd5b6001600160a01b038116610ba25750335b6001547f000000000000000000000000000000000000000000000000000000000000000090610bdb9085906001600160801b03166114e3565b1115610c1a57600154610c17906001600160801b03167f0000000000000000000000000000000000000000000000000000000000000000611562565b92505b600154600090610c349085906001600160801b03166114b8565b600154909150600090610c4f906001600160801b03166107f8565b610c61836001600160801b03166107f8565b610c6b9190611562565b905060007f0000000000000000000000000000000000000000000000000000000000000000610cba7f00000000000000000000000000000000000000000000000000000000000000008461151b565b610cc491906114fb565b90506000610cdb6001600160801b03831684611562565b905085811015610d2d5760405162461bcd60e51b815260206004820152600e60248201527f507269636520736c6970706167650000000000000000000000000000000000006044820152606401610a01565b600180546fffffffffffffffffffffffffffffffff19166001600160801b038616908117909155610d5d90610ebd565b610d926001600160a01b037f00000000000000000000000000000000000000000000000000000000000000001689308a610fd8565b610dc66001600160a01b037f0000000000000000000000000000000000000000000000000000000000000000168683610e14565b60408051888152602081018390526001600160a01b038716917fed7a144fad14804d5c249145e3e0e2b63a9eb455b76aee5bc92d711e9bba3e4a910160405180910390a25050505050505050565b6040516001600160a01b0383166024820152604481018290526106399084907fa9059cbb00000000000000000000000000000000000000000000000000000000906064015b60408051601f198184030181529190526020810180517bffffffffffffffffffffffffffffffffffffffffffffffffffffffff167fffffffff000000000000000000000000000000000000000000000000000000009093169290921790915261102f565b7f0000000000000000000000000000000000000000000000000000000000000000811115610f3c57600054600160a01b90046bffffffffffffffffffffffff1615610f3957600080546001600160a01b031681556040517f872773dc7322ea426b9da704907c7ec7ddec7be5113f704c9996ef5d42f7abb99190a15b50565b600054600160a01b90046bffffffffffffffffffffffff16610f3957610f827f0000000000000000000000000000000000000000000000000000000000000000436114e3565b600080546bffffffffffffffffffffffff92909216600160a01b026001600160a01b039092169190911781556040517f46efe1aa86f4d49f2cffbf6693db2723ce53019909ed0ea15c3d572bc7dff62f9190a150565b6040516001600160a01b03808516602483015283166044820152606481018290526110299085907f23b872dd0000000000000000000000000000000000000000000000000000000090608401610e59565b50505050565b6000611084826040518060400160405280602081526020017f5361666545524332303a206c6f772d6c6576656c2063616c6c206661696c6564815250856001600160a01b03166111149092919063ffffffff16565b80519091501561063957808060200190518101906110a291906113b2565b6106395760405162461bcd60e51b815260206004820152602a60248201527f5361666545524332303a204552433230206f7065726174696f6e20646964206e60448201527f6f742073756363656564000000000000000000000000000000000000000000006064820152608401610a01565b6060611123848460008561112b565b949350505050565b6060824710156111a35760405162461bcd60e51b815260206004820152602660248201527f416464726573733a20696e73756666696369656e742062616c616e636520666f60448201527f722063616c6c00000000000000000000000000000000000000000000000000006064820152608401610a01565b843b6111f15760405162461bcd60e51b815260206004820152601d60248201527f416464726573733a2063616c6c20746f206e6f6e2d636f6e74726163740000006044820152606401610a01565b600080866001600160a01b0316858760405161120d9190611469565b60006040518083038185875af1925050503d806000811461124a576040519150601f19603f3d011682016040523d82523d6000602084013e61124f565b606091505b509150915061125f82828661126a565b979650505050505050565b6060831561127957508161071a565b8251156112895782518084602001fd5b8160405162461bcd60e51b8152600401610a019190611485565b6000602082840312156112b4578081fd5b813561071a816115d1565b600080604083850312156112d1578081fd5b82356112dc816115d1565b946020939093013593505050565b6000806000606084860312156112fe578081fd5b8335611309816115d1565b925060208401359150604084013567ffffffffffffffff8082111561132c578283fd5b818601915086601f83011261133f578283fd5b813581811115611351576113516115bb565b604051601f8201601f19908116603f01168101908382118183101715611379576113796115bb565b81604052828152896020848701011115611391578586fd5b82602086016020830137856020848301015280955050505050509250925092565b6000602082840312156113c3578081fd5b8151801515811461071a578182fd5b6000602082840312156113e3578081fd5b5035919050565b6000602082840312156113fb578081fd5b5051919050565b60008060408385031215611414578182fd5b825191506020830151611426816115d1565b809150509250929050565b600080600060608486031215611445578283fd5b8335925060208401359150604084013561145e816115d1565b809150509250925092565b6000825161147b818460208701611579565b9190910192915050565b60208152600082518060208401526114a4816040850160208701611579565b601f01601f19169190910160400192915050565b60006001600160801b038083168185168083038211156114da576114da6115a5565b01949350505050565b600082198211156114f6576114f66115a5565b500190565b60008261151657634e487b7160e01b81526012600452602481fd5b500490565b6000816000190483118215151615611535576115356115a5565b500290565b60006001600160801b038381169083168181101561155a5761155a6115a5565b039392505050565b600082821015611574576115746115a5565b500390565b60005b8381101561159457818101518382015260200161157c565b838111156110295750506000910152565b634e487b7160e01b600052601160045260246000fd5b634e487b7160e01b600052604160045260246000fd5b6001600160a01b0381168114610f3957600080fdfea26469706673582212200f6e06a0ba2e859438cff70c6a6fd1651f2f3a927067fc89e3e55a2f80b4a74e64736f6c63430008040033",
  "linkReferences": {},
  "deployedLinkReferences": {}
}