{
    "_format": "hh-sol-artifact-1",
    "contractName": "DeadlineQuorumVoting",
    "sourceName": "contracts/voting/DeadlineQuorumVoting.sol",
    "abi": [
        {
            "inputs": [
                {
                    "internalType": "address",
                    "name": "owner_",
                    "type": "address"
                },
                {
                    "internalType": "address",
                    "name": "proposer_",
                    "type": "address"
                },
                {
                    "internalType": "address",
                    "name": "enacter_",
                    "type": "address"
                },
                {
                    "internalType": "contract IVotingWeights",
                    "name": "weights_",
                    "type": "address"
                },
                {
                    "internalType": "uint256",
                    "name": "voteDeadline_",
                    "type": "uint256"
                },
                {
                    "internalType": "uint256",
                    "name": "enactDelay_",
                    "type": "uint256"
                },
                {
                    "internalType": "uint256",
                    "name": "requiredQuorumFraction_",
                    "type": "uint256"
                }
            ],
            "stateMutability": "nonpayable",
            "type": "constructor"
        },
        {
            "anonymous": false,
            "inputs": [
                {
                    "indexed": true,
                    "internalType": "uint256",
                    "name": "voteId",
                    "type": "uint256"
                }
            ],
            "name": "Enaction",
            "type": "event"
        },
        {
            "anonymous": false,
            "inputs": [
                {
                    "indexed": true,
                    "internalType": "uint256",
                    "name": "voteId",
                    "type": "uint256"
                },
                {
                    "indexed": false,
                    "internalType": "bytes32",
                    "name": "rationale",
                    "type": "bytes32"
                }
            ],
            "name": "Proposal",
            "type": "event"
        },
        {
            "anonymous": false,
            "inputs": [
                {
                    "indexed": true,
                    "internalType": "uint256",
                    "name": "voteId",
                    "type": "uint256"
                },
                {
                    "indexed": true,
                    "internalType": "address",
                    "name": "voter",
                    "type": "address"
                },
                {
                    "indexed": false,
                    "internalType": "enum IVoting.VoteStatus",
                    "name": "value",
                    "type": "uint8"
                }
            ],
            "name": "Vote",
            "type": "event"
        },
        {
            "inputs": [
                {
                    "internalType": "uint256",
                    "name": "",
                    "type": "uint256"
                }
            ],
            "name": "actionsRoot",
            "outputs": [
                {
                    "internalType": "bytes32",
                    "name": "",
                    "type": "bytes32"
                }
            ],
            "stateMutability": "view",
            "type": "function"
        },
        {
            "inputs": [
                {
                    "internalType": "uint256",
                    "name": "voteId",
                    "type": "uint256"
                },
                {
                    "components": [
                        {
                            "internalType": "address",
                            "name": "target",
                            "type": "address"
                        },
                        {
                            "internalType": "bytes",
                            "name": "data",
                            "type": "bytes"
                        }
                    ],
                    "internalType": "struct IVotingBase.VoteAction[]",
                    "name": "actions",
                    "type": "tuple[]"
                }
            ],
            "name": "enact",
            "outputs": [],
            "stateMutability": "nonpayable",
            "type": "function"
        },
        {
            "inputs": [],
            "name": "enactDelay",
            "outputs": [
                {
                    "internalType": "uint256",
                    "name": "",
                    "type": "uint256"
                }
            ],
            "stateMutability": "view",
            "type": "function"
        },
        {
            "inputs": [
                {
                    "internalType": "uint256",
                    "name": "",
                    "type": "uint256"
                }
            ],
            "name": "enacted",
            "outputs": [
                {
                    "internalType": "bool",
                    "name": "",
                    "type": "bool"
                }
            ],
            "stateMutability": "view",
            "type": "function"
        },
        {
            "inputs": [],
            "name": "enacter",
            "outputs": [
                {
                    "internalType": "address",
                    "name": "",
                    "type": "address"
                }
            ],
            "stateMutability": "view",
            "type": "function"
        },
        {
            "inputs": [
                {
                    "internalType": "uint256",
                    "name": "voteId",
                    "type": "uint256"
                }
            ],
            "name": "hasQuorum",
            "outputs": [
                {
                    "internalType": "bool",
                    "name": "",
                    "type": "bool"
                }
            ],
            "stateMutability": "view",
            "type": "function"
        },
        {
            "inputs": [
                {
                    "internalType": "uint256",
                    "name": "voteId",
                    "type": "uint256"
                }
            ],
            "name": "isEnactable",
            "outputs": [
                {
                    "internalType": "bool",
                    "name": "",
                    "type": "bool"
                }
            ],
            "stateMutability": "view",
            "type": "function"
        },
        {
            "inputs": [
                {
                    "internalType": "uint256",
                    "name": "voteId",
                    "type": "uint256"
                }
            ],
            "name": "isVotable",
            "outputs": [
                {
                    "internalType": "bool",
                    "name": "",
                    "type": "bool"
                }
            ],
            "stateMutability": "view",
            "type": "function"
        },
        {
            "inputs": [
                {
                    "internalType": "address",
                    "name": "",
                    "type": "address"
                },
                {
                    "internalType": "address",
                    "name": "",
                    "type": "address"
                },
                {
                    "internalType": "uint256",
                    "name": "",
                    "type": "uint256"
                },
                {
                    "internalType": "bytes",
                    "name": "",
                    "type": "bytes"
                }
            ],
            "name": "onERC721Received",
            "outputs": [
                {
                    "internalType": "bytes4",
                    "name": "",
                    "type": "bytes4"
                }
            ],
            "stateMutability": "nonpayable",
            "type": "function"
        },
        {
            "inputs": [],
            "name": "owner",
            "outputs": [
                {
                    "internalType": "address",
                    "name": "",
                    "type": "address"
                }
            ],
            "stateMutability": "view",
            "type": "function"
        },
        {
            "inputs": [
                {
                    "internalType": "bytes32",
                    "name": "rationale_",
                    "type": "bytes32"
                },
                {
                    "internalType": "bytes32",
                    "name": "actionsRoot_",
                    "type": "bytes32"
                }
            ],
            "name": "propose",
            "outputs": [
                {
                    "internalType": "uint256",
                    "name": "voteId",
                    "type": "uint256"
                }
            ],
            "stateMutability": "nonpayable",
            "type": "function"
        },
        {
            "inputs": [],
            "name": "proposer",
            "outputs": [
                {
                    "internalType": "address",
                    "name": "",
                    "type": "address"
                }
            ],
            "stateMutability": "view",
            "type": "function"
        },
        {
            "inputs": [
                {
                    "internalType": "uint256",
                    "name": "",
                    "type": "uint256"
                },
                {
                    "internalType": "address",
                    "name": "",
                    "type": "address"
                }
            ],
            "name": "reducedWeight",
            "outputs": [
                {
                    "internalType": "uint256",
                    "name": "",
                    "type": "uint256"
                }
            ],
            "stateMutability": "view",
            "type": "function"
        },
        {
            "inputs": [
                {
                    "internalType": "uint256",
                    "name": "voteId",
                    "type": "uint256"
                }
            ],
            "name": "requiredQuorum",
            "outputs": [
                {
                    "internalType": "uint256",
                    "name": "quorum",
                    "type": "uint256"
                }
            ],
            "stateMutability": "view",
            "type": "function"
        },
        {
            "inputs": [],
            "name": "requiredQuorumFraction",
            "outputs": [
                {
                    "internalType": "uint256",
                    "name": "",
                    "type": "uint256"
                }
            ],
            "stateMutability": "view",
            "type": "function"
        },
        {
            "inputs": [
                {
                    "internalType": "address",
                    "name": "enacter_",
                    "type": "address"
                }
            ],
            "name": "setEnacter",
            "outputs": [],
            "stateMutability": "nonpayable",
            "type": "function"
        },
        {
            "inputs": [
                {
                    "internalType": "address",
                    "name": "newOwner",
                    "type": "address"
                }
            ],
            "name": "setOwner",
            "outputs": [],
            "stateMutability": "nonpayable",
            "type": "function"
        },
        {
            "inputs": [
                {
                    "internalType": "address",
                    "name": "proposer_",
                    "type": "address"
                }
            ],
            "name": "setProposer",
            "outputs": [],
            "stateMutability": "nonpayable",
            "type": "function"
        },
        {
            "inputs": [
                {
                    "internalType": "uint256",
                    "name": "requiredQuorumFraction_",
                    "type": "uint256"
                }
            ],
            "name": "setRequiredQuorumFraction",
            "outputs": [],
            "stateMutability": "nonpayable",
            "type": "function"
        },
        {
            "inputs": [
                {
                    "internalType": "uint256",
                    "name": "voteDeadline_",
                    "type": "uint256"
                }
            ],
            "name": "setVoteDeadline",
            "outputs": [],
            "stateMutability": "nonpayable",
            "type": "function"
        },
        {
            "inputs": [
                {
                    "internalType": "uint256",
                    "name": "enactDelay_",
                    "type": "uint256"
                }
            ],
            "name": "setVoteGraceTime",
            "outputs": [],
            "stateMutability": "nonpayable",
            "type": "function"
        },
        {
            "inputs": [
                {
                    "internalType": "uint256",
                    "name": "voteId",
                    "type": "uint256"
                },
                {
                    "internalType": "enum IVoting.VoteStatus",
                    "name": "value",
                    "type": "uint8"
                }
            ],
            "name": "vote",
            "outputs": [],
            "stateMutability": "nonpayable",
            "type": "function"
        },
        {
            "inputs": [
                {
                    "internalType": "uint256",
                    "name": "",
                    "type": "uint256"
                }
            ],
            "name": "voteCounts",
            "outputs": [
                {
                    "internalType": "uint256",
                    "name": "countYes",
                    "type": "uint256"
                },
                {
                    "internalType": "uint256",
                    "name": "countNo",
                    "type": "uint256"
                }
            ],
            "stateMutability": "view",
            "type": "function"
        },
        {
            "inputs": [],
            "name": "voteDeadline",
            "outputs": [
                {
                    "internalType": "uint256",
                    "name": "",
                    "type": "uint256"
                }
            ],
            "stateMutability": "view",
            "type": "function"
        },
        {
            "inputs": [
                {
                    "internalType": "uint256",
                    "name": "",
                    "type": "uint256"
                },
                {
                    "internalType": "address",
                    "name": "",
                    "type": "address"
                }
            ],
            "name": "voteOf",
            "outputs": [
                {
                    "internalType": "enum IVoting.VoteStatus",
                    "name": "",
                    "type": "uint8"
                }
            ],
            "stateMutability": "view",
            "type": "function"
        },
        {
            "inputs": [
                {
                    "internalType": "uint256",
                    "name": "",
                    "type": "uint256"
                }
            ],
            "name": "voteStartBlock",
            "outputs": [
                {
                    "internalType": "uint256",
                    "name": "",
                    "type": "uint256"
                }
            ],
            "stateMutability": "view",
            "type": "function"
        },
        {
            "inputs": [],
            "name": "weights",
            "outputs": [
                {
                    "internalType": "contract IVotingWeights",
                    "name": "",
                    "type": "address"
                }
            ],
            "stateMutability": "view",
            "type": "function"
        }
    ],
    "bytecode": "0x60806040523480156200001157600080fd5b50604051620016b2380380620016b28339810160408190526200003491620000b5565b8686866001600160a01b0383166200004d57306200004f565b825b600080546001600160a01b03199081166001600160a01b03938416179091556003805482169483169490941790935560048054841692821692909217909155600a8054909216961695909517909455600b92909255600c55600d55506200015492505050565b600080600080600080600060e0888a031215620000d0578283fd5b8751620000dd816200013b565b6020890151909750620000f0816200013b565b604089015190965062000103816200013b565b606089015190955062000116816200013b565b809450506080880151925060a0880151915060c0880151905092959891949750929550565b6001600160a01b03811681146200015157600080fd5b50565b61154e80620001646000396000f3fe608060405234801561001057600080fd5b50600436106101b95760003560e01c806383ca5a5b116100f9578063bbf8cf8211610097578063c7f0d6ce11610071578063c7f0d6ce14610467578063d4d535641461048a578063e7c7dd5a1461049d578063f73a89f2146104bd57600080fd5b8063bbf8cf821461042e578063bf8e0eb914610441578063c649f0401461045457600080fd5b8063943e8216116100d3578063943e8216146103d45780639b4af3b3146103e7578063a5f5f3e114610412578063a8e4fb901461041b57600080fd5b806383ca5a5b146103a557806388b3c561146103ae5780638da5cb5b146103c157600080fd5b80633801d664116101665780635004306f116101405780635004306f1461033e5780635f0f2de11461035157806369517e4e1461037f5780637303120c1461039257600080fd5b80633801d664146102b45780633c3a220d146102c757806345ddc85d1461030357600080fd5b80631fb4a228116101975780631fb4a2281461026b578063299ba15f1461027e57806333d6a7f7146102a157600080fd5b806313af4035146101be578063150b7a02146101d35780631c9a740114610240575b600080fd5b6101d16101cc3660046110cd565b6104c6565b005b61020a6101e136600461110c565b7f150b7a0200000000000000000000000000000000000000000000000000000000949350505050565b6040517fffffffff0000000000000000000000000000000000000000000000000000000090911681526020015b60405180910390f35b600454610253906001600160a01b031681565b6040516001600160a01b039091168152602001610237565b6101d16102793660046110cd565b61050c565b61029161028c366004611206565b610552565b6040519015158152602001610237565b6102916102af366004611206565b610585565b6101d16102c2366004611206565b6105b8565b6102ee6102d5366004611206565b6007602052600090815260409020805460019091015482565b60408051928352602083019190915201610237565b610331610311366004611236565b600660209081526000928352604080842090915290825290205460ff1681565b60405161023791906113f7565b6101d161034c366004611265565b6105d4565b61037161035f366004611206565b60016020526000908152604090205481565b604051908152602001610237565b6101d161038d366004611206565b610627565b6101d16103a0366004611206565b610643565b610371600b5481565b6101d16103bc3660046110cd565b61065f565b600054610253906001600160a01b031681565b6101d16103e23660046112df565b6106a5565b6103716103f5366004611236565b600860209081526000928352604080842090915290825290205481565b610371600c5481565b600354610253906001600160a01b031681565b61029161043c366004611206565b6106b4565b61037161044f3660046111e5565b6106e6565b600a54610253906001600160a01b031681565b610291610475366004611206565b60026020526000908152604090205460ff1681565b610371610498366004611206565b61070a565b6103716104ab366004611206565b60096020526000908152604090205481565b610371600d5481565b6000546001600160a01b031633146104dd57600080fd5b6000805473ffffffffffffffffffffffffffffffffffffffff19166001600160a01b0392909216919091179055565b6000546001600160a01b0316331461052357600080fd5b6003805473ffffffffffffffffffffffffffffffffffffffff19166001600160a01b0392909216919091179055565b6000600b546000148061057f5750600b5460008381526009602052604090205461057c919061148a565b43105b92915050565b6000600c546000148061057f5750600c546000838152600960205260409020546105af919061148a565b43101592915050565b6000546001600160a01b031633146105cf57600080fd5b600b55565b6105dd83610585565b6105e657600080fd5b6105ef836106b4565b6105f857600080fd5b6000838152600760205260409020600181015490541161061757600080fd5b6106228383836107c9565b505050565b6000546001600160a01b0316331461063e57600080fd5b600d55565b6000546001600160a01b0316331461065a57600080fd5b600c55565b6000546001600160a01b0316331461067657600080fd5b6004805473ffffffffffffffffffffffffffffffffffffffff19166001600160a01b0392909216919091179055565b6106b0823383610a3e565b5050565b60006106bf8261070a565b6000838152600760205260409020600181015490546106de919061148a565b101592915050565b60006106f28383610f82565b60008181526009602052604090204390559392505050565b600a546000828152600960205260408082205490517f53be568d0000000000000000000000000000000000000000000000000000000081526004810191909152909182916001600160a01b03909116906353be568d9060240160206040518083038186803b15801561077b57600080fd5b505afa15801561078f573d6000803e3d6000fd5b505050506040513d601f19601f820116820180604052508101906107b3919061121e565b90506107c181600d546110ae565b949350505050565b6004546001600160a01b031680158061086f57506001600160a01b038116600114801561086f5750600a5460405163dd4bc10160e01b81523360048201526000916001600160a01b03169063dd4bc1019060240160206040518083038186803b15801561083557600080fd5b505afa158015610849573d6000803e3d6000fd5b505050506040513d601f19601f8201168201806040525081019061086d919061121e565b115b8061088257506001600160a01b03811633145b61088b57600080fd5b60008481526002602052604090205460ff16156108a757600080fd5b6000848152600160209081526040918290205491516108ca918691869101611316565b60405160208183030381529060405280519060200120146108ea57600080fd5b6000848152600260205260408120805460ff191660011790555b82811015610a0c5760008085858481811061092f57634e487b7160e01b600052603260045260246000fd5b9050602002810190610941919061146b565b61094f9060208101906110cd565b6001600160a01b031686868581811061097857634e487b7160e01b600052603260045260246000fd5b905060200281019061098a919061146b565b61099890602081019061141f565b6040516109a6929190611306565b6000604051808303816000865af19150503d80600081146109e3576040519150601f19603f3d011682016040523d82523d6000602084013e6109e8565b606091505b5091509150816109f757600080fd5b50508080610a04906114b9565b915050610904565b5060405184907f0c3156bace27a601711bdea00369ae3d24c0ccc67ccf1cc87758a19fb52c93b290600090a250505050565b610a4783610552565b610a5057600080fd5b6000816002811115610a7257634e487b7160e01b600052602160045260246000fd5b1415610a7d57600080fd5b60008381526008602090815260408083206001600160a01b0386811680865291845282852054600a5489875260099095528386205493517fcc95bc5e0000000000000000000000000000000000000000000000000000000081526004810193909352602483019390935291929091169063cc95bc5e9060440160206040518083038186803b158015610b0e57600080fd5b505afa158015610b22573d6000803e3d6000fd5b505050506040513d601f19601f82011682018060405250810190610b46919061121e565b610b5091906114a2565b905060008111610bc0576040517f08c379a000000000000000000000000000000000000000000000000000000000815260206004820152600d60248201527f4e6f20766f746520706f77657200000000000000000000000000000000000000604482015260640160405180910390fd5b60008481526006602090815260408083206001600160a01b0387811680865291845282852054600a548a8752600990955283862054935163b3427a2b60e01b81526004810193909352602483019390935260ff90921693929091169063b3427a2b9060440160206040518083038186803b158015610c3d57600080fd5b505afa158015610c51573d6000803e3d6000fd5b505050506040513d601f19601f82011682018060405250810190610c7591906110f0565b90505b6001600160a01b03811615801590610caf57506000826002811115610cad57634e487b7160e01b600052602160045260246000fd5b145b15610da65760008681526008602090815260408083206001600160a01b038516845290915281208054859290610ce690849061148a565b909155505060008681526006602090815260408083206001600160a01b0385811680865291845282852054600a548c875260099095529483902054925163b3427a2b60e01b81526004810192909252602482019290925260ff9093169450169063b3427a2b9060440160206040518083038186803b158015610d6757600080fd5b505afa158015610d7b573d6000803e3d6000fd5b505050506040513d601f19601f82011682018060405250810190610d9f91906110f0565b9050610c78565b6001826002811115610dc857634e487b7160e01b600052602160045260246000fd5b1415610df75760008681526007602052604081208054859290610dec9084906114a2565b90915550610e469050565b6002826002811115610e1957634e487b7160e01b600052602160045260246000fd5b1415610e465760008681526007602052604081206001018054859290610e409084906114a2565b90915550505b60008681526006602090815260408083206001600160a01b03891684529091529020805485919060ff19166001836002811115610e9357634e487b7160e01b600052602160045260246000fd5b02179055506001846002811115610eba57634e487b7160e01b600052602160045260246000fd5b1415610ee95760008681526007602052604081208054859290610ede90849061148a565b90915550610f389050565b6002846002811115610f0b57634e487b7160e01b600052602160045260246000fd5b1415610f385760008681526007602052604081206001018054859290610f3290849061148a565b90915550505b846001600160a01b0316867fe4cb5fdde90708dcd00ddb58b9b33a631db90db5fc195227ff5c7657700115b486604051610f7291906113f7565b60405180910390a3505050505050565b6003546000906001600160a01b031680158061102b57506001600160a01b038116600114801561102b5750600a5460405163dd4bc10160e01b81523360048201526000916001600160a01b03169063dd4bc1019060240160206040518083038186803b158015610ff157600080fd5b505afa158015611005573d6000803e3d6000fd5b505050506040513d601f19601f82011682018060405250810190611029919061121e565b115b8061103e57506001600160a01b03811633145b61104757600080fd5b600554915061105782600161148a565b600555600082815260016020526040908190208490555182907fe4095f7a80ddfb5bd2a82436989d2acd60fed9a40ad02127a1a557d474f675f99061109f9087815260200190565b60405180910390a25092915050565b6000806000198385098385029250828110838203039150509250929050565b6000602082840312156110de578081fd5b81356110e981611500565b9392505050565b600060208284031215611101578081fd5b81516110e981611500565b60008060008060808587031215611121578283fd5b843561112c81611500565b9350602085013561113c81611500565b925060408501359150606085013567ffffffffffffffff8082111561115f578283fd5b818701915087601f830112611172578283fd5b813581811115611184576111846114ea565b604051601f8201601f19908116603f011681019083821181831017156111ac576111ac6114ea565b816040528281528a60208487010111156111c4578586fd5b82602086016020830137918201602001949094529598949750929550505050565b600080604083850312156111f7578182fd5b50508035926020909101359150565b600060208284031215611217578081fd5b5035919050565b60006020828403121561122f578081fd5b5051919050565b60008060408385031215611248578182fd5b82359150602083013561125a81611500565b809150509250929050565b600080600060408486031215611279578283fd5b83359250602084013567ffffffffffffffff80821115611297578384fd5b818601915086601f8301126112aa578384fd5b8135818111156112b8578485fd5b8760208260051b85010111156112cc578485fd5b6020830194508093505050509250925092565b600080604083850312156112f1578182fd5b8235915060208301356003811061125a578182fd5b8183823760009101908152919050565b60208082528181018390526000906040808401600586901b8501820187855b888110156113e957878303603f190184528135368b9003603e1901811261135a578788fd5b8a01803561136781611500565b6001600160a01b031684528087013536829003601e19018112611388578889fd5b8101803567ffffffffffffffff8111156113a057898afd5b8036038313156113ae57898afd5b8789870152808887015260609250808983018488013785810183018a905295880195601f01601f191690940101925090850190600101611335565b509098975050505050505050565b602081016003831061141957634e487b7160e01b600052602160045260246000fd5b91905290565b6000808335601e19843603018112611435578283fd5b83018035915067ffffffffffffffff82111561144f578283fd5b60200191503681900382131561146457600080fd5b9250929050565b60008235603e19833603018112611480578182fd5b9190910192915050565b6000821982111561149d5761149d6114d4565b500190565b6000828210156114b4576114b46114d4565b500390565b60006000198214156114cd576114cd6114d4565b5060010190565b634e487b7160e01b600052601160045260246000fd5b634e487b7160e01b600052604160045260246000fd5b6001600160a01b038116811461151557600080fd5b5056fea26469706673582212208aff224d05510cebf71660b5c430fbac743ed86eecbaa6c2e3b7646f643389a164736f6c63430008040033",
    "linkReferences": {},
    "deployedLinkReferences": {}
}