{
  "_format": "hh-sol-artifact-1",
  "contractName": "DeadlineQuorumVoting",
  "sourceName": "contracts/voting/DeadlineQuorumVoting.sol",
  "abi": [
    {
      "inputs": [
        {
          "internalType": "address",
          "name": "owner_",
          "type": "address"
        },
        {
          "internalType": "address",
          "name": "proposer_",
          "type": "address"
        },
        {
          "internalType": "address",
          "name": "enacter_",
          "type": "address"
        },
        {
          "internalType": "contract IVotingWeights",
          "name": "weights_",
          "type": "address"
        },
        {
          "internalType": "uint256",
          "name": "voteDeadline_",
          "type": "uint256"
        },
        {
          "internalType": "uint256",
          "name": "enactDelay_",
          "type": "uint256"
        },
        {
          "internalType": "uint256",
          "name": "requiredQuorumFraction_",
          "type": "uint256"
        }
      ],
      "stateMutability": "nonpayable",
      "type": "constructor"
    },
    {
      "anonymous": false,
      "inputs": [
        {
          "indexed": true,
          "internalType": "bytes32",
          "name": "voteId",
          "type": "bytes32"
        },
        {
          "indexed": false,
          "internalType": "bytes32",
          "name": "rationale",
          "type": "bytes32"
        },
        {
          "indexed": false,
          "internalType": "bytes32",
          "name": "actionsHash",
          "type": "bytes32"
        }
      ],
      "name": "Enaction",
      "type": "event"
    },
    {
      "anonymous": false,
      "inputs": [
        {
          "indexed": true,
          "internalType": "bytes32",
          "name": "voteId",
          "type": "bytes32"
        },
        {
          "indexed": false,
          "internalType": "bytes32",
          "name": "rationale",
          "type": "bytes32"
        },
        {
          "indexed": false,
          "internalType": "bytes32",
          "name": "actionsHash",
          "type": "bytes32"
        }
      ],
      "name": "Proposal",
      "type": "event"
    },
    {
      "anonymous": false,
      "inputs": [
        {
          "indexed": true,
          "internalType": "bytes32",
          "name": "voteId",
          "type": "bytes32"
        },
        {
          "indexed": true,
          "internalType": "address",
          "name": "voter",
          "type": "address"
        },
        {
          "indexed": false,
          "internalType": "enum IVoting.VoteStatus",
          "name": "value",
          "type": "uint8"
        }
      ],
      "name": "Vote",
      "type": "event"
    },
    {
      "inputs": [
        {
          "internalType": "bytes32",
          "name": "rationale",
          "type": "bytes32"
        },
        {
          "components": [
            {
              "internalType": "address",
              "name": "target",
              "type": "address"
            },
            {
              "internalType": "bytes",
              "name": "data",
              "type": "bytes"
            }
          ],
          "internalType": "struct IVotingBase.VoteAction[]",
          "name": "actions_",
          "type": "tuple[]"
        }
      ],
      "name": "enact",
      "outputs": [],
      "stateMutability": "nonpayable",
      "type": "function"
    },
    {
      "inputs": [],
      "name": "enactDelay",
      "outputs": [
        {
          "internalType": "uint256",
          "name": "",
          "type": "uint256"
        }
      ],
      "stateMutability": "view",
      "type": "function"
    },
    {
      "inputs": [
        {
          "internalType": "bytes32",
          "name": "voteId",
          "type": "bytes32"
        }
      ],
      "name": "enacted",
      "outputs": [
        {
          "internalType": "bool",
          "name": "",
          "type": "bool"
        }
      ],
      "stateMutability": "view",
      "type": "function"
    },
    {
      "inputs": [],
      "name": "enacter",
      "outputs": [
        {
          "internalType": "address",
          "name": "",
          "type": "address"
        }
      ],
      "stateMutability": "view",
      "type": "function"
    },
    {
      "inputs": [
        {
          "internalType": "bytes32",
          "name": "voteId",
          "type": "bytes32"
        }
      ],
      "name": "isAfterEnactDelay",
      "outputs": [
        {
          "internalType": "bool",
          "name": "",
          "type": "bool"
        }
      ],
      "stateMutability": "view",
      "type": "function"
    },
    {
      "inputs": [
        {
          "internalType": "bytes32",
          "name": "voteId",
          "type": "bytes32"
        }
      ],
      "name": "isWithinVoteDeadline",
      "outputs": [
        {
          "internalType": "bool",
          "name": "",
          "type": "bool"
        }
      ],
      "stateMutability": "view",
      "type": "function"
    },
    {
      "inputs": [
        {
          "internalType": "address",
          "name": "",
          "type": "address"
        },
        {
          "internalType": "address",
          "name": "",
          "type": "address"
        },
        {
          "internalType": "uint256",
          "name": "",
          "type": "uint256"
        },
        {
          "internalType": "bytes",
          "name": "",
          "type": "bytes"
        }
      ],
      "name": "onERC721Received",
      "outputs": [
        {
          "internalType": "bytes4",
          "name": "",
          "type": "bytes4"
        }
      ],
      "stateMutability": "nonpayable",
      "type": "function"
    },
    {
      "inputs": [],
      "name": "owner",
      "outputs": [
        {
          "internalType": "address",
          "name": "",
          "type": "address"
        }
      ],
      "stateMutability": "view",
      "type": "function"
    },
    {
      "inputs": [
        {
          "internalType": "bytes32",
          "name": "rationale",
          "type": "bytes32"
        },
        {
          "internalType": "bytes32",
          "name": "actionsHash",
          "type": "bytes32"
        }
      ],
      "name": "propose",
      "outputs": [
        {
          "internalType": "bytes32",
          "name": "voteId",
          "type": "bytes32"
        }
      ],
      "stateMutability": "nonpayable",
      "type": "function"
    },
    {
      "inputs": [
        {
          "internalType": "bytes32",
          "name": "voteId",
          "type": "bytes32"
        }
      ],
      "name": "proposed",
      "outputs": [
        {
          "internalType": "bool",
          "name": "",
          "type": "bool"
        }
      ],
      "stateMutability": "view",
      "type": "function"
    },
    {
      "inputs": [],
      "name": "proposer",
      "outputs": [
        {
          "internalType": "address",
          "name": "",
          "type": "address"
        }
      ],
      "stateMutability": "view",
      "type": "function"
    },
    {
      "inputs": [
        {
          "internalType": "bytes32",
          "name": "",
          "type": "bytes32"
        },
        {
          "internalType": "address",
          "name": "",
          "type": "address"
        }
      ],
      "name": "reducedWeight",
      "outputs": [
        {
          "internalType": "uint256",
          "name": "",
          "type": "uint256"
        }
      ],
      "stateMutability": "view",
      "type": "function"
    },
    {
      "inputs": [
        {
          "internalType": "bytes32",
          "name": "voteId",
          "type": "bytes32"
        }
      ],
      "name": "requiredQuorum",
      "outputs": [
        {
          "internalType": "uint256",
          "name": "quorum",
          "type": "uint256"
        }
      ],
      "stateMutability": "view",
      "type": "function"
    },
    {
      "inputs": [],
      "name": "requiredQuorumFraction",
      "outputs": [
        {
          "internalType": "uint256",
          "name": "",
          "type": "uint256"
        }
      ],
      "stateMutability": "view",
      "type": "function"
    },
    {
      "inputs": [
        {
          "internalType": "uint256",
          "name": "enactDelay_",
          "type": "uint256"
        }
      ],
      "name": "setEnactDelay",
      "outputs": [],
      "stateMutability": "nonpayable",
      "type": "function"
    },
    {
      "inputs": [
        {
          "internalType": "address",
          "name": "enacter_",
          "type": "address"
        }
      ],
      "name": "setEnacter",
      "outputs": [],
      "stateMutability": "nonpayable",
      "type": "function"
    },
    {
      "inputs": [
        {
          "internalType": "address",
          "name": "newOwner",
          "type": "address"
        }
      ],
      "name": "setOwner",
      "outputs": [],
      "stateMutability": "nonpayable",
      "type": "function"
    },
    {
      "inputs": [
        {
          "internalType": "address",
          "name": "proposer_",
          "type": "address"
        }
      ],
      "name": "setProposer",
      "outputs": [],
      "stateMutability": "nonpayable",
      "type": "function"
    },
    {
      "inputs": [
        {
          "internalType": "uint256",
          "name": "requiredQuorumFraction_",
          "type": "uint256"
        }
      ],
      "name": "setRequiredQuorumFraction",
      "outputs": [],
      "stateMutability": "nonpayable",
      "type": "function"
    },
    {
      "inputs": [
        {
          "internalType": "uint256",
          "name": "voteDeadline_",
          "type": "uint256"
        }
      ],
      "name": "setVoteDeadline",
      "outputs": [],
      "stateMutability": "nonpayable",
      "type": "function"
    },
    {
      "inputs": [
        {
          "internalType": "bytes32",
          "name": "voteId",
          "type": "bytes32"
        },
        {
          "internalType": "enum IVoting.VoteStatus",
          "name": "value",
          "type": "uint8"
        }
      ],
      "name": "vote",
      "outputs": [],
      "stateMutability": "nonpayable",
      "type": "function"
    },
    {
      "inputs": [
        {
          "internalType": "bytes32",
          "name": "",
          "type": "bytes32"
        }
      ],
      "name": "voteCounts",
      "outputs": [
        {
          "internalType": "uint256",
          "name": "countYes",
          "type": "uint256"
        },
        {
          "internalType": "uint256",
          "name": "countNo",
          "type": "uint256"
        }
      ],
      "stateMutability": "view",
      "type": "function"
    },
    {
      "inputs": [],
      "name": "voteDeadline",
      "outputs": [
        {
          "internalType": "uint256",
          "name": "",
          "type": "uint256"
        }
      ],
      "stateMutability": "view",
      "type": "function"
    },
    {
      "inputs": [
        {
          "internalType": "bytes32",
          "name": "",
          "type": "bytes32"
        },
        {
          "internalType": "address",
          "name": "",
          "type": "address"
        }
      ],
      "name": "voteOf",
      "outputs": [
        {
          "internalType": "enum IVoting.VoteStatus",
          "name": "",
          "type": "uint8"
        }
      ],
      "stateMutability": "view",
      "type": "function"
    },
    {
      "inputs": [
        {
          "internalType": "bytes32",
          "name": "",
          "type": "bytes32"
        }
      ],
      "name": "voteStartBlock",
      "outputs": [
        {
          "internalType": "uint256",
          "name": "",
          "type": "uint256"
        }
      ],
      "stateMutability": "view",
      "type": "function"
    },
    {
      "inputs": [],
      "name": "weights",
      "outputs": [
        {
          "internalType": "contract IVotingWeights",
          "name": "",
          "type": "address"
        }
      ],
      "stateMutability": "view",
      "type": "function"
    }
  ],
  "bytecode": "0x60806040523480156200001157600080fd5b50604051620016b3380380620016b38339810160408190526200003491620000b5565b8686866001600160a01b0383166200004d57306200004f565b825b600080546001600160a01b03199081166001600160a01b0393841617909155600180548216948316949094179093556002805484169282169290921790915560088054909216961695909517909455600992909255600a55600b55506200015492505050565b600080600080600080600060e0888a031215620000d0578283fd5b8751620000dd816200013b565b6020890151909750620000f0816200013b565b604089015190965062000103816200013b565b606089015190955062000116816200013b565b809450506080880151925060a0880151915060c0880151905092959891949750929550565b6001600160a01b03811681146200015157600080fd5b50565b61154f80620001646000396000f3fe608060405234801561001057600080fd5b50600436106101ae5760003560e01c806383ca5a5b116100ee578063bbad29c911610097578063c649f04011610071578063c649f04014610450578063c9a28cb914610463578063d509d13514610476578063f73a89f2146104a157600080fd5b8063bbad29c9146103ef578063bd0e63571461042a578063bf8e0eb91461043d57600080fd5b80638da5cb5b116100c85780638da5cb5b146103c0578063a5f5f3e1146103d3578063a8e4fb90146103dc57600080fd5b806383ca5a5b1461038457806388b3c5611461038d5780638c478b29146103a057600080fd5b80633801d6641161015b5780636783190a116101355780636783190a146102f157806369517e4e146103145780637640a8781461032757806381d0e37b1461034857600080fd5b80633801d664146102b857806351874ea7146102cb578063669d2772146102de57600080fd5b80631fb4a2281161018c5780631fb4a228146102605780632402ffef1461027357806330175b951461029657600080fd5b806313af4035146101b3578063150b7a02146101c85780631c9a740114610235575b600080fd5b6101c66101c13660046110ce565b6104aa565b005b6101ff6101d636600461110d565b7f150b7a0200000000000000000000000000000000000000000000000000000000949350505050565b6040517fffffffff0000000000000000000000000000000000000000000000000000000090911681526020015b60405180910390f35b600254610248906001600160a01b031681565b6040516001600160a01b03909116815260200161022c565b6101c661026e3660046110ce565b6104f0565b6102866102813660046111e6565b610536565b604051901515815260200161022c565b6102866102a43660046111e6565b600090815260066020526040902054151590565b6101c66102c63660046111e6565b61056a565b6101c66102d936600461122d565b610586565b6102866102ec3660046111e6565b61081c565b6102866102ff3660046111e6565b60009081526007602052604090205460ff1690565b6101c66103223660046111e6565b61084e565b61033a6103353660046111e6565b61086a565b60405190815260200161022c565b61036f6103563660046111e6565b6004602052600090815260409020805460019091015482565b6040805192835260208301919091520161022c565b61033a60095481565b6101c661039b3660046110ce565b610929565b61033a6103ae3660046111e6565b60066020526000908152604090205481565b600054610248906001600160a01b031681565b61033a600a5481565b600154610248906001600160a01b031681565b61041d6103fd3660046111fe565b600360209081526000928352604080842090915290825290205460ff1681565b60405161022c91906113f8565b6101c66104383660046111e6565b61096f565b61033a61044b3660046112a7565b61098b565b600854610248906001600160a01b031681565b6101c66104713660046112c8565b610ad5565b61033a6104843660046111fe565b600560209081526000928352604080842090915290825290205481565b61033a600b5481565b6000546001600160a01b031633146104c157600080fd5b6000805473ffffffffffffffffffffffffffffffffffffffff19166001600160a01b0392909216919091179055565b6000546001600160a01b0316331461050757600080fd5b6001805473ffffffffffffffffffffffffffffffffffffffff19166001600160a01b0392909216919091179055565b6000600a54600014806105645750600a54600083815260066020526040902054610560919061148b565b4310155b92915050565b6000546001600160a01b0316331461058157600080fd5b600955565b6002546001600160a01b031680158061062c57506001600160a01b038116600114801561062c575060085460405163dd4bc10160e01b81523360048201526000916001600160a01b03169063dd4bc1019060240160206040518083038186803b1580156105f257600080fd5b505afa158015610606573d6000803e3d6000fd5b505050506040513d601f19601f8201168201806040525081019061062a91906112ef565b115b8061063f57506001600160a01b03811633145b61064857600080fd5b6000838360405160200161065d929190611317565b60408051601f19818403018152828252805160209182012090830188905290820181905291506000906060016040516020818303038152906040528051906020012090506106ba8160009081526007602052604090205460ff1690565b156106c457600080fd5b6106cd81610ae4565b60005b848110156107d8576000808787848181106106fb57634e487b7160e01b600052603260045260246000fd5b905060200281019061070d919061146c565b61071b9060208101906110ce565b6001600160a01b031688888581811061074457634e487b7160e01b600052603260045260246000fd5b9050602002810190610756919061146c565b610764906020810190611420565b604051610772929190611307565b6000604051808303816000865af19150503d80600081146107af576040519150601f19603f3d011682016040523d82523d6000602084013e6107b4565b606091505b5091509150816107c357600080fd5b505080806107d0906114ba565b9150506106d0565b50604080518781526020810184905282917fd833e0e87134afc0dfcf4fe98ed00b0b53a68ea32ec40efe7ed517246d4c9b79910160405180910390a2505050505050565b6000600954600014806105645750600954600083815260066020526040902054610846919061148b565b431092915050565b6000546001600160a01b0316331461086557600080fd5b600b55565b6008546000828152600660205260408082205490517f53be568d0000000000000000000000000000000000000000000000000000000081526004810191909152909182916001600160a01b03909116906353be568d9060240160206040518083038186803b1580156108db57600080fd5b505afa1580156108ef573d6000803e3d6000fd5b505050506040513d601f19601f8201168201806040525081019061091391906112ef565b905061092181600b54610b53565b949350505050565b6000546001600160a01b0316331461094057600080fd5b6002805473ffffffffffffffffffffffffffffffffffffffff19166001600160a01b0392909216919091179055565b6000546001600160a01b0316331461098657600080fd5b600a55565b6001546000906001600160a01b0316801580610a3457506001600160a01b0381166001148015610a34575060085460405163dd4bc10160e01b81523360048201526000916001600160a01b03169063dd4bc1019060240160206040518083038186803b1580156109fa57600080fd5b505afa158015610a0e573d6000803e3d6000fd5b505050506040513d601f19601f82011682018060405250810190610a3291906112ef565b115b80610a4757506001600160a01b03811633145b610a5057600080fd5b6040805160208101869052908101849052606001604051602081830303815290604052805190602001209150610a93826000908152600660205260409020439055565b604080518581526020810185905283917fc4795746a26c5bd4a10f7d2e6dadc12ad566d0d42c40259af1670788a3931fac910160405180910390a25092915050565b610ae0823383610b72565b5050565b610aed81610536565b610af657600080fd5b610aff8161086a565b6000828152600460205260409020541015610b1957600080fd5b60008181526004602052604090206001810154905411610b3857600080fd5b6000908152600760205260409020805460ff19166001179055565b6000806000198385098385029250828110838203039150509250929050565b600083815260066020526040902054610b8a57600080fd5b610b938361081c565b610b9c57600080fd5b6000816002811115610bbe57634e487b7160e01b600052602160045260246000fd5b1415610bc957600080fd5b60008381526005602090815260408083206001600160a01b038681168086529184528285205460085489875260069095528386205493517fcc95bc5e0000000000000000000000000000000000000000000000000000000081526004810193909352602483019390935291929091169063cc95bc5e9060440160206040518083038186803b158015610c5a57600080fd5b505afa158015610c6e573d6000803e3d6000fd5b505050506040513d601f19601f82011682018060405250810190610c9291906112ef565b610c9c91906114a3565b905060008111610d0c576040517f08c379a000000000000000000000000000000000000000000000000000000000815260206004820152600d60248201527f4e6f20766f746520706f77657200000000000000000000000000000000000000604482015260640160405180910390fd5b60008481526003602090815260408083206001600160a01b03878116808652918452828520546008548a8752600690955283862054935163b3427a2b60e01b81526004810193909352602483019390935260ff90921693929091169063b3427a2b9060440160206040518083038186803b158015610d8957600080fd5b505afa158015610d9d573d6000803e3d6000fd5b505050506040513d601f19601f82011682018060405250810190610dc191906110f1565b90505b6001600160a01b03811615801590610dfb57506000826002811115610df957634e487b7160e01b600052602160045260246000fd5b145b15610ef25760008681526005602090815260408083206001600160a01b038516845290915281208054859290610e3290849061148b565b909155505060008681526003602090815260408083206001600160a01b03858116808652918452828520546008548c875260069095529483902054925163b3427a2b60e01b81526004810192909252602482019290925260ff9093169450169063b3427a2b9060440160206040518083038186803b158015610eb357600080fd5b505afa158015610ec7573d6000803e3d6000fd5b505050506040513d601f19601f82011682018060405250810190610eeb91906110f1565b9050610dc4565b6001826002811115610f1457634e487b7160e01b600052602160045260246000fd5b1415610f435760008681526004602052604081208054859290610f389084906114a3565b90915550610f929050565b6002826002811115610f6557634e487b7160e01b600052602160045260246000fd5b1415610f925760008681526004602052604081206001018054859290610f8c9084906114a3565b90915550505b60008681526003602090815260408083206001600160a01b03891684529091529020805485919060ff19166001836002811115610fdf57634e487b7160e01b600052602160045260246000fd5b0217905550600184600281111561100657634e487b7160e01b600052602160045260246000fd5b1415611035576000868152600460205260408120805485929061102a90849061148b565b909155506110849050565b600284600281111561105757634e487b7160e01b600052602160045260246000fd5b1415611084576000868152600460205260408120600101805485929061107e90849061148b565b90915550505b846001600160a01b0316867ff0aab9e9f5ae5a3f60bc8a4378034451698c2dd0126d4b8533767c0ceb434f7c866040516110be91906113f8565b60405180910390a3505050505050565b6000602082840312156110df578081fd5b81356110ea81611501565b9392505050565b600060208284031215611102578081fd5b81516110ea81611501565b60008060008060808587031215611122578283fd5b843561112d81611501565b9350602085013561113d81611501565b925060408501359150606085013567ffffffffffffffff80821115611160578283fd5b818701915087601f830112611173578283fd5b813581811115611185576111856114eb565b604051601f8201601f19908116603f011681019083821181831017156111ad576111ad6114eb565b816040528281528a60208487010111156111c5578586fd5b82602086016020830137918201602001949094529598949750929550505050565b6000602082840312156111f7578081fd5b5035919050565b60008060408385031215611210578182fd5b82359150602083013561122281611501565b809150509250929050565b600080600060408486031215611241578283fd5b83359250602084013567ffffffffffffffff8082111561125f578384fd5b818601915086601f830112611272578384fd5b813581811115611280578485fd5b8760208260051b8501011115611294578485fd5b6020830194508093505050509250925092565b600080604083850312156112b9578182fd5b50508035926020909101359150565b600080604083850312156112da578182fd5b82359150602083013560038110611222578182fd5b600060208284031215611300578081fd5b5051919050565b8183823760009101908152919050565b60208082528181018390526000906040808401600586901b8501820187855b888110156113ea57878303603f190184528135368b9003603e1901811261135b578788fd5b8a01803561136881611501565b6001600160a01b031684528087013536829003601e19018112611389578889fd5b8101803567ffffffffffffffff8111156113a157898afd5b8036038313156113af57898afd5b8789870152808887015260609250808983018488013785810183018a905295880195601f01601f191690940101925090850190600101611336565b509098975050505050505050565b602081016003831061141a57634e487b7160e01b600052602160045260246000fd5b91905290565b6000808335601e19843603018112611436578283fd5b83018035915067ffffffffffffffff821115611450578283fd5b60200191503681900382131561146557600080fd5b9250929050565b60008235603e19833603018112611481578182fd5b9190910192915050565b6000821982111561149e5761149e6114d5565b500190565b6000828210156114b5576114b56114d5565b500390565b60006000198214156114ce576114ce6114d5565b5060010190565b634e487b7160e01b600052601160045260246000fd5b634e487b7160e01b600052604160045260246000fd5b6001600160a01b038116811461151657600080fd5b5056fea2646970667358221220e6669cce498cfc2a197f9a21a787bba48765e48be03f12b063f337f08258bb3c64736f6c63430008040033",
  "linkReferences": {},
  "deployedLinkReferences": {}
}