{
  "_format": "hh-sol-artifact-1",
  "contractName": "DeadlineVoting",
  "sourceName": "contracts/voting/DeadlineVoting.sol",
  "abi": [
    {
      "inputs": [
        {
          "internalType": "address",
          "name": "owner_",
          "type": "address"
        },
        {
          "internalType": "address",
          "name": "proposer_",
          "type": "address"
        },
        {
          "internalType": "address",
          "name": "enacter_",
          "type": "address"
        },
        {
          "internalType": "contract IVotingWeights",
          "name": "weights_",
          "type": "address"
        },
        {
          "internalType": "uint256",
          "name": "voteDeadline_",
          "type": "uint256"
        }
      ],
      "stateMutability": "nonpayable",
      "type": "constructor"
    },
    {
      "anonymous": false,
      "inputs": [
        {
          "indexed": true,
          "internalType": "uint256",
          "name": "voteId",
          "type": "uint256"
        }
      ],
      "name": "Enaction",
      "type": "event"
    },
    {
      "anonymous": false,
      "inputs": [
        {
          "indexed": true,
          "internalType": "uint256",
          "name": "voteId",
          "type": "uint256"
        }
      ],
      "name": "Proposal",
      "type": "event"
    },
    {
      "anonymous": false,
      "inputs": [
        {
          "indexed": true,
          "internalType": "uint256",
          "name": "voteId",
          "type": "uint256"
        },
        {
          "indexed": true,
          "internalType": "address",
          "name": "voter",
          "type": "address"
        },
        {
          "indexed": false,
          "internalType": "enum IVoting.VoteStatus",
          "name": "value",
          "type": "uint8"
        }
      ],
      "name": "Vote",
      "type": "event"
    },
    {
      "inputs": [
        {
          "internalType": "uint256",
          "name": "",
          "type": "uint256"
        }
      ],
      "name": "actionsRoot",
      "outputs": [
        {
          "internalType": "bytes32",
          "name": "",
          "type": "bytes32"
        }
      ],
      "stateMutability": "view",
      "type": "function"
    },
    {
      "inputs": [
        {
          "internalType": "uint256",
          "name": "voteId",
          "type": "uint256"
        },
        {
          "components": [
            {
              "internalType": "address",
              "name": "target",
              "type": "address"
            },
            {
              "internalType": "bytes",
              "name": "data",
              "type": "bytes"
            }
          ],
          "internalType": "struct IVotingBase.VoteAction[]",
          "name": "actions",
          "type": "tuple[]"
        }
      ],
      "name": "enact",
      "outputs": [],
      "stateMutability": "nonpayable",
      "type": "function"
    },
    {
      "inputs": [],
      "name": "enacter",
      "outputs": [
        {
          "internalType": "address",
          "name": "",
          "type": "address"
        }
      ],
      "stateMutability": "view",
      "type": "function"
    },
    {
      "inputs": [
        {
          "internalType": "address",
          "name": "",
          "type": "address"
        },
        {
          "internalType": "address",
          "name": "",
          "type": "address"
        },
        {
          "internalType": "uint256",
          "name": "",
          "type": "uint256"
        },
        {
          "internalType": "bytes",
          "name": "",
          "type": "bytes"
        }
      ],
      "name": "onERC721Received",
      "outputs": [
        {
          "internalType": "bytes4",
          "name": "",
          "type": "bytes4"
        }
      ],
      "stateMutability": "nonpayable",
      "type": "function"
    },
    {
      "inputs": [],
      "name": "owner",
      "outputs": [
        {
          "internalType": "address",
          "name": "",
          "type": "address"
        }
      ],
      "stateMutability": "view",
      "type": "function"
    },
    {
      "inputs": [
        {
          "internalType": "bytes32",
          "name": "rationale_",
          "type": "bytes32"
        },
        {
          "internalType": "bytes32",
          "name": "actionsRoot_",
          "type": "bytes32"
        }
      ],
      "name": "propose",
      "outputs": [
        {
          "internalType": "uint256",
          "name": "voteId",
          "type": "uint256"
        }
      ],
      "stateMutability": "nonpayable",
      "type": "function"
    },
    {
      "inputs": [],
      "name": "proposer",
      "outputs": [
        {
          "internalType": "address",
          "name": "",
          "type": "address"
        }
      ],
      "stateMutability": "view",
      "type": "function"
    },
    {
      "inputs": [
        {
          "internalType": "uint256",
          "name": "",
          "type": "uint256"
        }
      ],
      "name": "rationale",
      "outputs": [
        {
          "internalType": "bytes32",
          "name": "",
          "type": "bytes32"
        }
      ],
      "stateMutability": "view",
      "type": "function"
    },
    {
      "inputs": [
        {
          "internalType": "uint256",
          "name": "",
          "type": "uint256"
        },
        {
          "internalType": "address",
          "name": "",
          "type": "address"
        }
      ],
      "name": "reducedWeight",
      "outputs": [
        {
          "internalType": "uint256",
          "name": "",
          "type": "uint256"
        }
      ],
      "stateMutability": "view",
      "type": "function"
    },
    {
      "inputs": [
        {
          "internalType": "address",
          "name": "enacter_",
          "type": "address"
        }
      ],
      "name": "setEnacter",
      "outputs": [],
      "stateMutability": "nonpayable",
      "type": "function"
    },
    {
      "inputs": [
        {
          "internalType": "address",
          "name": "newOwner",
          "type": "address"
        }
      ],
      "name": "setOwner",
      "outputs": [],
      "stateMutability": "nonpayable",
      "type": "function"
    },
    {
      "inputs": [
        {
          "internalType": "address",
          "name": "proposer_",
          "type": "address"
        }
      ],
      "name": "setProposer",
      "outputs": [],
      "stateMutability": "nonpayable",
      "type": "function"
    },
    {
      "inputs": [
        {
          "internalType": "uint256",
          "name": "voteDeadline_",
          "type": "uint256"
        }
      ],
      "name": "setVoteDeadline",
      "outputs": [],
      "stateMutability": "nonpayable",
      "type": "function"
    },
    {
      "inputs": [
        {
          "internalType": "uint256",
          "name": "voteId",
          "type": "uint256"
        },
        {
          "internalType": "enum IVoting.VoteStatus",
          "name": "value",
          "type": "uint8"
        }
      ],
      "name": "vote",
      "outputs": [],
      "stateMutability": "nonpayable",
      "type": "function"
    },
    {
      "inputs": [
        {
          "internalType": "uint256",
          "name": "voteId",
          "type": "uint256"
        }
      ],
      "name": "voteActive",
      "outputs": [
        {
          "internalType": "bool",
          "name": "",
          "type": "bool"
        }
      ],
      "stateMutability": "view",
      "type": "function"
    },
    {
      "inputs": [
        {
          "internalType": "uint256",
          "name": "",
          "type": "uint256"
        }
      ],
      "name": "voteCounts",
      "outputs": [
        {
          "internalType": "uint256",
          "name": "countYes",
          "type": "uint256"
        },
        {
          "internalType": "uint256",
          "name": "countNo",
          "type": "uint256"
        }
      ],
      "stateMutability": "view",
      "type": "function"
    },
    {
      "inputs": [],
      "name": "voteDeadline",
      "outputs": [
        {
          "internalType": "uint256",
          "name": "",
          "type": "uint256"
        }
      ],
      "stateMutability": "view",
      "type": "function"
    },
    {
      "inputs": [
        {
          "internalType": "uint256",
          "name": "",
          "type": "uint256"
        },
        {
          "internalType": "address",
          "name": "",
          "type": "address"
        }
      ],
      "name": "voteOf",
      "outputs": [
        {
          "internalType": "enum IVoting.VoteStatus",
          "name": "",
          "type": "uint8"
        }
      ],
      "stateMutability": "view",
      "type": "function"
    },
    {
      "inputs": [
        {
          "internalType": "uint256",
          "name": "",
          "type": "uint256"
        }
      ],
      "name": "voteStartBlock",
      "outputs": [
        {
          "internalType": "uint256",
          "name": "",
          "type": "uint256"
        }
      ],
      "stateMutability": "view",
      "type": "function"
    },
    {
      "inputs": [],
      "name": "weights",
      "outputs": [
        {
          "internalType": "contract IVotingWeights",
          "name": "",
          "type": "address"
        }
      ],
      "stateMutability": "view",
      "type": "function"
    }
  ],
  "bytecode": "0x60806040523480156200001157600080fd5b506040516200140e3803806200140e8339810160408190526200003491620000ac565b8484846001600160a01b0383166200004d57306200004f565b825b600080546001600160a01b03199081166001600160a01b03938416179091556003805482169483169490941790935560048054841692821692909217909155600a8054909216941693909317909255600b55506200013892505050565b600080600080600060a08688031215620000c4578081fd5b8551620000d1816200011f565b6020870151909550620000e4816200011f565b6040870151909450620000f7816200011f565b60608701519093506200010a816200011f565b80925050608086015190509295509295909350565b6001600160a01b03811681146200013557600080fd5b50565b6112c680620001486000396000f3fe608060405234801561001057600080fd5b506004361061016c5760003560e01c806383ca5a5b116100cd578063a8e4fb9011610081578063bf8e0eb911610066578063bf8e0eb9146103bf578063c649f040146103d2578063e7c7dd5a146103e557600080fd5b8063a8e4fb901461038c578063a98517331461039f57600080fd5b80638da5cb5b116100b25780638da5cb5b1461033b578063943e82161461034e5780639b4af3b31461036157600080fd5b806383ca5a5b1461031f57806388b3c5611461032857600080fd5b80633c3a220d116101245780635004306f116101095780635004306f146102bb5780635f0f2de1146102ce57806367a27dfe146102fc57600080fd5b80633c3a220d1461024457806345ddc85d1461028057600080fd5b80631c9a7401116101555780631c9a7401146101f35780631fb4a2281461021e5780633801d6641461023157600080fd5b806313af403514610171578063150b7a0214610186575b600080fd5b61018461017f366004610e45565b610405565b005b6101bd610194366004610e84565b7f150b7a0200000000000000000000000000000000000000000000000000000000949350505050565b6040517fffffffff0000000000000000000000000000000000000000000000000000000090911681526020015b60405180910390f35b600454610206906001600160a01b031681565b6040516001600160a01b0390911681526020016101ea565b61018461022c366004610e45565b61044b565b61018461023f366004610f7e565b610491565b61026b610252366004610f7e565b6007602052600090815260409020805460019091015482565b604080519283526020830191909152016101ea565b6102ae61028e366004610fae565b600660209081526000928352604080842090915290825290205460ff1681565b6040516101ea919061116f565b6101846102c9366004610fdd565b6104ad565b6102ee6102dc366004610f7e565b60026020526000908152604090205481565b6040519081526020016101ea565b61030f61030a366004610f7e565b6104ee565b60405190151581526020016101ea565b6102ee600b5481565b610184610336366004610e45565b610513565b600054610206906001600160a01b031681565b61018461035c366004611057565b610559565b6102ee61036f366004610fae565b600860209081526000928352604080842090915290825290205481565b600354610206906001600160a01b031681565b6102ee6103ad366004610f7e565b60016020526000908152604090205481565b6102ee6103cd366004610f5d565b610568565b600a54610206906001600160a01b031681565b6102ee6103f3366004610f7e565b60096020526000908152604090205481565b6000546001600160a01b0316331461041c57600080fd5b6000805473ffffffffffffffffffffffffffffffffffffffff19166001600160a01b0392909216919091179055565b6000546001600160a01b0316331461046257600080fd5b6003805473ffffffffffffffffffffffffffffffffffffffff19166001600160a01b0392909216919091179055565b6000546001600160a01b031633146104a857600080fd5b600b55565b6104b6836104ee565b1580156104d55750600083815260076020526040902060018101549054115b6104de57600080fd5b6104e983838361058c565b505050565b600b54600082815260096020526040812054909161050b91611202565b431092915050565b6000546001600160a01b0316331461052a57600080fd5b6004805473ffffffffffffffffffffffffffffffffffffffff19166001600160a01b0392909216919091179055565b6105648233836107dd565b5050565b60006105748383610d21565b60008181526009602052604090204390559392505050565b6004546001600160a01b031680158061063257506001600160a01b03811660011480156106325750600a5460405163dd4bc10160e01b81523360048201526000916001600160a01b03169063dd4bc1019060240160206040518083038186803b1580156105f857600080fd5b505afa15801561060c573d6000803e3d6000fd5b505050506040513d601f19601f820116820180604052508101906106309190610f96565b115b8061064557506001600160a01b03811633145b61064e57600080fd5b60008481526002602090815260409182902054915161067191869186910161108e565b604051602081830303815290604052805190602001201461069157600080fd5b60008481526002602052604081208190555b828110156107ab576000808585848181106106ce57634e487b7160e01b600052603260045260246000fd5b90506020028101906106e091906111e3565b6106ee906020810190610e45565b6001600160a01b031686868581811061071757634e487b7160e01b600052603260045260246000fd5b905060200281019061072991906111e3565b610737906020810190611197565b60405161074592919061107e565b6000604051808303816000865af19150503d8060008114610782576040519150601f19603f3d011682016040523d82523d6000602084013e610787565b606091505b50915091508161079657600080fd5b505080806107a390611231565b9150506106a3565b5060405184907f0c3156bace27a601711bdea00369ae3d24c0ccc67ccf1cc87758a19fb52c93b290600090a250505050565b6107e6836104ee565b6107ef57600080fd5b600081600281111561081157634e487b7160e01b600052602160045260246000fd5b141561081c57600080fd5b60008381526008602090815260408083206001600160a01b0386811680865291845282852054600a5489875260099095528386205493517fcc95bc5e0000000000000000000000000000000000000000000000000000000081526004810193909352602483019390935291929091169063cc95bc5e9060440160206040518083038186803b1580156108ad57600080fd5b505afa1580156108c1573d6000803e3d6000fd5b505050506040513d601f19601f820116820180604052508101906108e59190610f96565b6108ef919061121a565b90506000811161095f576040517f08c379a000000000000000000000000000000000000000000000000000000000815260206004820152600d60248201527f4e6f20766f746520706f77657200000000000000000000000000000000000000604482015260640160405180910390fd5b60008481526006602090815260408083206001600160a01b0387811680865291845282852054600a548a8752600990955283862054935163b3427a2b60e01b81526004810193909352602483019390935260ff90921693929091169063b3427a2b9060440160206040518083038186803b1580156109dc57600080fd5b505afa1580156109f0573d6000803e3d6000fd5b505050506040513d601f19601f82011682018060405250810190610a149190610e68565b90505b6001600160a01b03811615801590610a4e57506000826002811115610a4c57634e487b7160e01b600052602160045260246000fd5b145b15610b455760008681526008602090815260408083206001600160a01b038516845290915281208054859290610a85908490611202565b909155505060008681526006602090815260408083206001600160a01b0385811680865291845282852054600a548c875260099095529483902054925163b3427a2b60e01b81526004810192909252602482019290925260ff9093169450169063b3427a2b9060440160206040518083038186803b158015610b0657600080fd5b505afa158015610b1a573d6000803e3d6000fd5b505050506040513d601f19601f82011682018060405250810190610b3e9190610e68565b9050610a17565b6001826002811115610b6757634e487b7160e01b600052602160045260246000fd5b1415610b965760008681526007602052604081208054859290610b8b90849061121a565b90915550610be59050565b6002826002811115610bb857634e487b7160e01b600052602160045260246000fd5b1415610be55760008681526007602052604081206001018054859290610bdf90849061121a565b90915550505b60008681526006602090815260408083206001600160a01b03891684529091529020805485919060ff19166001836002811115610c3257634e487b7160e01b600052602160045260246000fd5b02179055506001846002811115610c5957634e487b7160e01b600052602160045260246000fd5b1415610c885760008681526007602052604081208054859290610c7d908490611202565b90915550610cd79050565b6002846002811115610caa57634e487b7160e01b600052602160045260246000fd5b1415610cd75760008681526007602052604081206001018054859290610cd1908490611202565b90915550505b846001600160a01b0316867fe4cb5fdde90708dcd00ddb58b9b33a631db90db5fc195227ff5c7657700115b486604051610d11919061116f565b60405180910390a3505050505050565b6003546000906001600160a01b0316801580610dca57506001600160a01b0381166001148015610dca5750600a5460405163dd4bc10160e01b81523360048201526000916001600160a01b03169063dd4bc1019060240160206040518083038186803b158015610d9057600080fd5b505afa158015610da4573d6000803e3d6000fd5b505050506040513d601f19601f82011682018060405250810190610dc89190610f96565b115b80610ddd57506001600160a01b03811633145b610de657600080fd5b6005549150610df6826001611202565b600555600082815260016020908152604080832087905560029091528082208590555183917f383ad2fa1cc478b330af807b1e7931e0f808535c3469ef8188de9349b83abd7c91a25092915050565b600060208284031215610e56578081fd5b8135610e6181611278565b9392505050565b600060208284031215610e79578081fd5b8151610e6181611278565b60008060008060808587031215610e99578283fd5b8435610ea481611278565b93506020850135610eb481611278565b925060408501359150606085013567ffffffffffffffff80821115610ed7578283fd5b818701915087601f830112610eea578283fd5b813581811115610efc57610efc611262565b604051601f8201601f19908116603f01168101908382118183101715610f2457610f24611262565b816040528281528a6020848701011115610f3c578586fd5b82602086016020830137918201602001949094529598949750929550505050565b60008060408385031215610f6f578182fd5b50508035926020909101359150565b600060208284031215610f8f578081fd5b5035919050565b600060208284031215610fa7578081fd5b5051919050565b60008060408385031215610fc0578182fd5b823591506020830135610fd281611278565b809150509250929050565b600080600060408486031215610ff1578283fd5b83359250602084013567ffffffffffffffff8082111561100f578384fd5b818601915086601f830112611022578384fd5b813581811115611030578485fd5b8760208260051b8501011115611044578485fd5b6020830194508093505050509250925092565b60008060408385031215611069578182fd5b82359150602083013560038110610fd2578182fd5b8183823760009101908152919050565b60208082528181018390526000906040808401600586901b8501820187855b8881101561116157878303603f190184528135368b9003603e190181126110d2578788fd5b8a0180356110df81611278565b6001600160a01b031684528087013536829003601e19018112611100578889fd5b8101803567ffffffffffffffff81111561111857898afd5b80360383131561112657898afd5b8789870152808887015260609250808983018488013785810183018a905295880195601f01601f1916909401019250908501906001016110ad565b509098975050505050505050565b602081016003831061119157634e487b7160e01b600052602160045260246000fd5b91905290565b6000808335601e198436030181126111ad578283fd5b83018035915067ffffffffffffffff8211156111c7578283fd5b6020019150368190038213156111dc57600080fd5b9250929050565b60008235603e198336030181126111f8578182fd5b9190910192915050565b600082198211156112155761121561124c565b500190565b60008282101561122c5761122c61124c565b500390565b60006000198214156112455761124561124c565b5060010190565b634e487b7160e01b600052601160045260246000fd5b634e487b7160e01b600052604160045260246000fd5b6001600160a01b038116811461128d57600080fd5b5056fea2646970667358221220ea9c587bf7b01371e9687c5d0edbe86708eab33795ab15cec273ce04e16e454064736f6c63430008040033",
  "linkReferences": {},
  "deployedLinkReferences": {}
}